:020000040800F2
:1000000000000220150700086507000865070008C2
:100010006507000865070008650700080000000084
:10002000000000000000000000000000650700085C
:100030006507000800000000650700086D03000860
:1000400065070008650700086507000865070008E0
:1000500065070008650700086507000865070008D0
:1000600065070008650700086507000865070008C0
:1000700065070008650700086507000865070008B0
:1000800065070008650700086507000865070008A0
:100090006507000865070008650700086507000890
:1000A0006507000865070008650700086507000880
:1000B0008102000865070008650700086507000859
:1000C0006507000865070008650700086507000860
:1000D0006507000865070008650700086507000850
:1000E0006507000865070008650700086507000840
:1000F0006507000865070008650700086507000830
:10010000650700086507000865070008650700081F
:10011000650700086507000865070008650700080F
:1001200065070008650700086507000865070008FF
:1001300065070008000000000000000065070008D7
:1001400065070008650700086507000865070008DF
:1001500065070008650700086507000865070008CF
:1001600065070008650700086507000865070008BF
:100170006507000865070008650700080000000023
:1001800000000000650700080000000000000000FB
:100190006507000800000000000000006507000877
:1001A00000000000000000000000000065070008DB
:1001B000650700086507000865070008650700086F
:0401C00065070008C7
:1001C40010B5054C237833B9044B13B10448AFF38D
:1001D40000800123237010BD5C0500200000000096
:1001E4004C0A000808B5034B1BB103490348AFF39D
:1001F400008008BD00000000600500204C0A0008D3
:10020400A3F5803A704700BF174B002B08BF134B70
:100214009D46FFF7F5FF00218B460F461348144A0D
:10022400121A00F0D9FA0E4B002B00D098470D4B50
:10023400002B00D098470020002104000D000D4839
:10024400002802D00C4800F089FB00F0A1FA20003D
:10025400290000F0C7F900F08BFA00BF0000080085
:100264000000000000000000000000005C05002009
:10027400A8050020610900086D0900084FF08043BB
:100284001A6992070AD51969074A21F0020119610E
:100294001168172903D01368013313607047196874
:1002A40021F001011960F6E77805002010B5044635
:1002B400C0B200F0CFF8204610BD00BF204B1A6832
:1002C40042F001021A601A689207FCD51D4A5A606E
:1002D4005A681B4922F480025A609A6842F4144214
:1002E4009A601A6842F080721A600B689801FCD513
:1002F4000B6C154A43F080530B64136843F480334A
:1003040013605368D903FCD513680F4943F40033D1
:1003140013604B689B03FCD50C4B094A40F20571F2
:100324001960936823F003039360936843F0020316
:100334009360936803F00C03082BFAD1704700BF55
:1003440000380240082D000200700040003C0240CA
:100354004FF0E023034900200722986159611A6194
:10036400704700BF1FBF0200034B1A6812B11A681E
:10037400013A1A60704700BF7C050020024A1060F1
:100384001368002BFCD170477C0500200F4B104AEA
:10039400186B104940F0010010B41863106840F065
:1003A40080001060106A40F4E04010621A6C40F261
:1003B400871442F400321A648C60CB685DF8044BF5
:1003C40043F4005343F00403CB6070470038024009
:1003D4000000024000440040044A0549D36840201C
:1003E40043F02003D3604860704700BF00440040DE
:1003F40000E100E0034A13689B06FCD55068C0B2D4
:10040400704700BF004400400F4B104A186B10495E
:1004140040F0010010B41863106840F02000106030
:10042400106A40F4E06010621A6C40F2871442F4DF
:1004340000321A648C60CB685DF8044B43F40053BB
:1004440043F00803CB6070470038024000000240CC
:1004540000440040024A13681B06FCD550607047F4
:1004640000440040E00A0008000000205C05002071
:100474005C050020A8050020034AD2F8883043F424
:100484007003C2F88830704700ED00E0164A9368A4
:1004940003F00C03042B0CD0082B0CD0134B124A82
:1004A400134892681349C2F30312825CD3400B6071
:1004B4007047114BF3E75368516813F4800F01F050
:1004C4003F01536814BF0C4A084AB2FBF1F1064AD3
:1004D4005268C2F30142C3F38813013201FB03F3F0
:1004E4005200B3FBF2F3DAE7003802400024F400D0
:1004F4008C0A00082401002040787D01704700BF69
:100504000120704708B500F02DF9162303604FF061
:10051400FF3008BD08B500F025F916230360FEE797
:1005240070B5161E07DD0C468D19AFF3008004F874
:10053400010BA542F9D1304670BD00BF70B5161E3F
:1005440007DD0C468D1914F8010BFFF7AFFEA54229
:10055400F9D1304670BD00BF4FF0FF30704700BF87
:100564004FF400534B600020704700BF01207047D8
:10057400002070470EB44FF0FF3003B0704700BF47
:1005840008B500F0EFF80A2303604FF0FF3008BD10
:1005940008B500F0E7F8022303604FF0FF3008BD10
:1005A4004FF0FF30704700BF4FF400534B60002002
:1005B400704700BF08B500F0D5F81F2303604FF063
:1005C400FF3008BD08B500F0CDF80B2303604FF0F1
:1005D400FF3008BD08B500F0C5F80C2303604FF0E8
:1005E400FF3008BD10B5FFF769FEFFF7B1FE4349C0
:1005F400434B086B40F001000863086C40F00100B5
:100604000864186840F400601860186A4FF080426B
:1006140040F48010186208240C239462D362906919
:10062400384B40F060009061D06840F4864040F060
:100634000200D060106840F004001060106A40F0BE
:10064400010010620A6B002442F400120A63C3F82A
:100654008840D3F88820D207FBD4D3F888202A4CCA
:100664002A4842F0C062C3F88820D3F8882042F4B4
:100674008072C3F88820D3F8882042F48062C3F8DB
:100684008820D3F8882022F40052C3F88820D3F8B5
:10069400882042F48042C3F88820D3F8882022F4CA
:1006A4000062C3F88820D3F8882042F48052C3F84B
:1006B4008820D3F8882042F04002C3F88820D3F879
:1006C400882022F08002C3F888204FF0804148221D
:1006D400C3F88C20C3F89040C3F894000B68094C0D
:1006E40043F001030B603220FFF748FED4F8883052
:1006F40043F00103C4F88830F5E700BF0038024036
:100704000000024000600240340000400400002069
:10071400DFF834D00D480E490E4A002302E0D458C5
:10072400C4500433C4188C42F9D30B4A0B4C002335
:1007340001E013600432A242FBD3FFF79DFE00F0F8
:1007440027F8FFF74FFF7047000002200000002049
:100754005C050020E00A00085C050020A8050020D4
:10076400FEE70000014B1868704700BF2C01002011
:1007740008B50021044600F08BF8044B1868C36BDD
:1007840003B198472046FFF7C5FE00BFC80A00081A
:1007940070B50D4E0D4D761BB61006D0002455F8DD
:1007A400043B01349847A642F9D1094E094D761B02
:1007B40000F04CF9B61006D0002455F8043B01347F
:1007C4009847A642F9D170BDD40A0008D40A00089B
:1007D400DC0A0008D40A0008830730B548D0541E48
:1007E400002A3FD0CAB2034601E0013C3AD303F8E1
:1007F400012B9D07F9D1032C2DD9CDB245EA05254E
:100804000F2C45EA054536D9A4F1100222F00F0C4D
:1008140003F1200EE6444FEA121C03F1100242E9F0
:10082400045542E9025510327245F8D10CF1010227
:1008340014F00C0F03EB021204F00F0C13D0ACF104
:10084400040323F003030433134442F8045B934288
:10085400FBD10CF003042CB1CAB21C4403F8012BE5
:100864009C42FBD130BD64461346002CF4D1F9E719
:1008740003461446BFE71A46A446E0E7024B13B109
:10088400024800F06BB87047000000006D090008D2
:100894002DE9F84F2F4B2DED028B834618680F4638
:1008A40000F082F82C4BD3F80080D8F84861AEB140
:1008B40008EE10BA4FF001094FF0000A7468651E83
:1008C4000CD4013406EB840487B1D4F80031BB4264
:1008D4000CD0013D6B1CA4F10404F5D1BDEC028BDA
:1008E4001C4B1868BDE8F84F00F066B873682268BE
:1008F400013BAB420CBF7560C4F800A0002AE8D0ED
:10090400D6F88801D6F804B009FA05F101420BD1F2
:10091400904772685A4513D1D8F84831B342D8D0B9
:100924001E46002ECAD1D9E7D6F88C0101420CD15B
:10093400D4F8801018EE100A904772685A45EBD02C
:10094400D8F84861002EB9D1C8E7D4F880009047A0
:10095400DFE700BF58050020C80A0008002301464D
:100964001A46184600F02AB838B5084B084D5B1BE8
:100974009C1007D0043B1D44013C55F804399847AA
:10098400002CF9D1BDE8384000F066B8E00A000850
:10099400DC0A0008704700BF704700BF704700BF03
:1009A400704700BF704700BF704700BF0120704709
:1009B40001207047704700BF704700BF2DE9F04722
:1009C400DFF880A00646DAF8000098460F46914604
:1009D400FFF7EAFF1A4B1B68D3F8484124B3656854
:1009E4001F2D26DC5EB96B1C0235DAF8000063604B
:1009F40044F82570FFF7E0FF0020BDE8F08704EB22
:100A040085010123C1F88890D4F88821AB401A43AA
:100A1400022EC4F88821C1F80881E4D1D4F88C21CD
:100A24001343C4F88C31DEE703F5A674C3F84841D8
:100A3400D5E7DAF80000FFF7BFFF4FF0FF30DCE73F
:100A4400C80A00085805002000000000F8B500BFDF
:100A5400F8BC08BC9E467047F8B500BFF8BC08BC9B
:040A64009E467047F3
:100A68003A3D0A3D0F3D243D323D023D053D133DD3
:100A78000D3D0C3D233D113D263D013D173D083DF3
:100A8800093D00000000000000000000010203040E
:100A98000607080900000000010203043A3D0A3D68
:100AA8000F3D243D323D023D053D133D0D3D0C3DBE
:100AB800233D113D263D013D173D083D093D000000
:040AC80030010020D9
:080ACC0038F7FF7F0100000074
:080AD40081080008E901000897
:040ADC00C501000848
:100AE00000000000040000000400000007000000F7
:100AF00007000000070000000400000004000000E0
:100B000004000000040000000400000004000000D5
:100B100004000000040000000400000004000000C5
:100B200004000000040000000400000004000000B5
:100B300004000000040000000400000004000000A5
:100B40000400000004000000040000000400000095
:100B50000400000004000000040000000400000085
:100B60000400000004000000040000000400000075
:100B70000400000004000000040000000400000065
:100B80000400000004000000040000000700000052
:100B9000070000000700000004000000040000003F
:100BA0000400000004000000040000000400000035
:100BB0000400000004000000040000000400000025
:100BC0000400000004000000040000000700000012
:100BD00007000000070000000400000004000000FF
:100BE00004000000040000000400000004000000F5
:100BF00004000000040000000400000004000000E5
:100C0000040000000024F4008005002030010020D2
:100C1000000000001C04002084040020EC040020DC
:100C200000000000000000000000000000000000C4
:100C300000000000000000000000000000000000B4
:100C400000000000000000000000000000000000A4
:100C50000000000000000000000000000000000094
:100C60000000000000000000000000000000000084
:100C70000000000000000000000000000000000074
:100C80000000000000000000000000000000000064
:100C90000000000000000000000000000000000054
:100CA0000000000000000000000000000000000044
:100CB0000000000000000000010000000000000033
:100CC0000E33CDAB34126DE6ECDE05000B000000F8
:100CD0000000000000000000000000000000000014
:100CE0000000000000000000000000000000000004
:100CF00000000000000000000000000000000000F4
:100D000000000000000000000000000000000000E3
:0C10300000000000000000008C05002003
:0400000508000715D3
:00000001FF
