:020000040800F2
:10000000000002208D080008DD080008DD08000857
:10001000DD080008DD080008DD0800080000000019
:10002000000000000000000000000000DD080008E3
:10003000DD08000800000000DD080008B503000826
:10004000DD080008DD080008DD080008DD080008FC
:10005000DD080008DD080008DD080008DD080008EC
:10006000DD080008DD080008DD080008DD080008DC
:10007000DD080008DD080008DD080008DD080008CC
:10008000C9020008DD080008DD080008DD080008D6
:10009000DD080008DD080008DD080008DD080008AC
:1000A000DD080008DD080008DD080008DD0800089C
:1000B00081020008DD080008DD080008DD080008EE
:1000C000DD080008DD080008DD080008DD0800087C
:1000D000DD080008DD080008DD080008DD0800086C
:1000E000DD080008DD080008DD080008DD0800085C
:1000F000DD080008DD080008DD080008DD0800084C
:10010000DD080008DD080008DD080008DD0800083B
:10011000DD080008DD080008DD080008DD0800082B
:10012000DD080008DD080008DD080008DD0800081B
:10013000DD0800080000000000000000DD080008E5
:10014000DD080008DD080008DD080008DD080008FB
:10015000DD080008DD080008DD080008DD080008EB
:10016000DD080008DD080008DD080008DD080008DB
:10017000DD080008DD080008DD08000800000000B8
:1001800000000000DD080008000000000000000082
:10019000DD0800080000000000000000DD08000885
:1001A000000000000000000000000000DD08000862
:1001B000DD080008DD080008DD080008DD0800088B
:0401C000DD0800084E
:1001C40010B5054C237833B9044B13B10448AFF38D
:1001D40000800123237010BD3C04002000000000B7
:1001E400C40B000808B5034B1BB103490348AFF324
:1001F400008008BD0000000040040020C40B00087B
:10020400A3F5803A704700BF174B002B08BF134B70
:100214009D46FFF7F5FF00218B460F461348144A0D
:10022400121A00F095FB0E4B002B00D098470D4B93
:10023400002B00D098470020002104000D000D4839
:10024400002802D00C4800F045FC00F05DFB2000C3
:10025400290000F0D5FA00F047FB00BF00000800B9
:100264000000000000000000000000003C0400202A
:10027400B0040020D90A0008E50A00084FF08043C2
:100284001A69D10712D519690D4A21F001011961C2
:10029400D16811B100215963D16093684BB14FF01B
:1002A4008043002038219060D96270471A69920710
:1002B40000D470471A6922F002021A61704700BF25
:1002C40058040020094B5A6812050DD5DA6808490C
:1002D40042F400620120DA60C8608B6823B14FF0F9
:1002E400804340F6CA02DA62704700BF00600240F1
:1002F4005804002010B50446C0B200F0D7F82046D8
:1003040010BD00BF204B1A6842F001021A601A683F
:100314009207FCD51D4A5A605A681B4922F4800290
:100324005A609A6842F414429A601A6842F08072E1
:100334001A600B689801FCD50B6C154A43F0805386
:100344000B64136843F4803313605368D903FCD5FA
:1003540013680F4943F4003313604B689B03FCD5C7
:100364000C4B094A40F205711960936823F00303AA
:100374009360936843F002039360936803F00C0363
:10038400082BFAD1704700BF00380240082D000244
:1003940000700040003C02404FF0E023034900207D
:1003A4000722986159611A61704700BF1FBF02009C
:1003B400044B1A6812B11A68013A1A605A68013279
:1003C4005A60704780040020024A10601368002BB2
:1003D400FCD1704780040020014B5868704700BF6F
:1003E400800400200F4B104A186B104940F00100A4
:1003F40010B41863106840F080001060106A40F474
:10040400E04010621A6C40F2871442F400321A641D
:100414008C60CB685DF8044B43F4005343F0040351
:10042400CB607047003802400000024000440040A6
:10043400044A0549D368402043F02003D360486050
:10044400704700BF0044004000E100E0034A136825
:100454009B06FCD55068C0B2704700BF0044004002
:100464000F4B104A186B104940F0010010B4186388
:10047400106840F020001060106A40F4E0601062E0
:100484001A6C40F2871442F400321A648C60CB6810
:100494005DF8044B43F4005343F00803CB6070470A
:1004A400003802400000024000440040024A136841
:1004B4001B06FCD550607047004400401C491D4A8F
:1004C400086B40F0010010B40863086C0124204359
:1004D4000864116841F400611160116A4FF08043AF
:1004E40041F480111162382160229C62D9629A61C0
:1004F400DA6811492243DA60DA6842F00202DA600B
:10050400DA6842F40072DA60DA6842F48072DA601F
:100514005A6842F008025A601A6A22431A621A6838
:100524004FF0805022431A605DF8044B0860704716
:10053400003802400000024000E100E01A491B4B71
:100544000A6B002042F400120A63C3F88800D3F84F
:100554008820D207FBD4D3F88820154942F0C06222
:10056400C3F88820D3F8882042F48062C3F8882036
:10057400D3F8882042F48042C3F88820D3F8882036
:1005840042F48052C3F88820D3F8882042F0400215
:10059400C3F88820D3F888204FF4803042F010024A
:1005A400C3F88820086070470038024000600240A9
:1005B40000E100E0002360F3070361F30F2362F31B
:1005C400174382B0184602B0704700BF2DE9F041CE
:1005D400294B2A4C4FF080429AB000211825064638
:1005E40002A8C3F88C50C3F89040C3F89400516239
:1005F4005162B368002BFCD137681F4D07F118080E
:100604004FF0010E10242020D5F8883013F0010398
:10061400FAD13A7897F801C0B978120242EA0C424A
:100624000A4301920199C3F117020EFA02F20A4237
:1006340008BF1AAA0DF1680C08BF02EB83020CEB89
:10064400830C03F1010314BF4CF8600C42F8604CB6
:10065400182BE7D1D5F8883043F00103C5F888306A
:10066400F368002BFCD00337B845CDD10123B36028
:100674001AB0BDE8F08100BF0060024034000040C1
:10068400580C0008000000203C0400203C0400201A
:10069400B0040020034AD2F8883043F47003C2F84F
:1006A4008830704700ED00E0164A936803F00C03AD
:1006B400042B0CD0082B0CD0134B124A134892680D
:1006C4001349C2F30312825CD3400B607047114B91
:1006D400F3E75368516813F4800F01F03F01536846
:1006E40014BF0C4A084AB2FBF1F1064A5268C2F33D
:1006F4000142C3F38813013201FB03F35200B3FB3D
:10070400F2F3DAE7003802400024F400040C000895
:100714000400002040787D01704700BF012070472D
:1007240008B500F0DBF8162303604FF0FF3008BD76
:1007340008B500F0D3F816230360FEE770B5161E63
:1007440007DD0C468D19AFF3008004F8010BA542B8
:10075400F9D1304670BD00BF70B5161E07DD0C46DA
:100764008D1914F8010BFFF7C5FDA542F9D13046E8
:1007740070BD00BF4FF0FF30704700BF4FF400530F
:100784004B600020704700BF012070470020704775
:100794000EB44FF0FF3003B0704700BF08B500F04F
:1007A4009DF80A2303604FF0FF3008BD08B500F040
:1007B40095F8022303604FF0FF3008BD4FF0FF307F
:1007C400704700BF4FF400534B600020704700BFD8
:1007D40008B500F083F81F2303604FF0FF3008BD15
:1007E40008B500F07BF80B2303604FF0FF3008BD21
:1007F40008B500F073F80C2303604FF0FF3008BD18
:100804002DE9F8431E4FDFF87C80FFF77BFDFFF7EF
:10081400C3FDFFF725FEFFF751FEFFF78FFE002310
:1008240007F110010822BB601C463960BA80BB7115
:10083400FB601E46FFF7D0FD031B0A2B0546F9DDBE
:100844005FFA86F900244A4649464846FFF7B2FE55
:10085400396808550A190334C0F30721C0F3074364
:10086400182C51709370EED13846FFF7AFFE731C0D
:10087400A8FB0326F609C6EB06269E1B2C46D9E7E1
:100884005804002081808080DFF834D00D480E4960
:100894000E4A002302E0D458C4500433C4188C42D6
:1008A400F9D30B4A0B4C002301E013600432A2423B
:1008B400FBD3FFF7EFFE00F027F8FFF7A1FF704727
:1008C40000000220000000203C040020580C000816
:1008D4003C040020B0040020FEE70000014B18682F
:1008E400704700BF0C00002008B50021044600F04A
:1008F4008BF8044B1868C36B03B198472046FFF785
:1009040017FF00BF400C000870B50D4E0D4D761B4F
:10091400B61006D0002455F8043B01349847A6428B
:10092400F9D1094E094D761B00F04CF9B61006D0EA
:10093400002455F8043B01349847A642F9D170BD10
:100944004C0C00084C0C0008540C00084C0C00081B
:10095400830730B548D0541E002A3FD0CAB203469C
:1009640001E0013C3AD303F8012B9D07F9D1032C94
:100974002DD9CDB245EA05250F2C45EA054536D9D2
:10098400A4F1100222F00F0C03F1200EE6444FEA0A
:10099400121C03F1100242E9045542E902551032D7
:1009A4007245F8D10CF1010214F00C0F03EB0212A2
:1009B40004F00F0C13D0ACF1040323F0030304334D
:1009C400134442F8045B9342FBD10CF003042CB1B2
:1009D400CAB21C4403F8012B9C42FBD130BD6446CF
:1009E4001346002CF4D1F9E703461446BFE71A4630
:1009F400A446E0E7024B13B1024800F06BB870471D
:100A040000000000E50A00082DE9F84F2F4B2DEDFA
:100A1400028B834618680F4600F082F82C4BD3F8FB
:100A24000080D8F84861AEB108EE10BA4FF0010961
:100A34004FF0000A7468651E0CD4013406EB84047C
:100A440087B1D4F80031BB420CD0013D6B1CA4F13A
:100A54000404F5D1BDEC028B1C4B1868BDE8F84FBB
:100A640000F066B873682268013BAB420CBF756046
:100A7400C4F800A0002AE8D0D6F88801D6F804B05B
:100A840009FA05F101420BD1904772685A4513D116
:100A9400D8F84831B342D8D01E46002ECAD1D9E77F
:100AA400D6F88C0101420CD1D4F8801018EE100A4B
:100AB400904772685A45EBD0D8F84861002EB9D1F6
:100AC400C8E7D4F880009047DFE700BF380400206F
:100AD400400C0008002301461A46184600F02AB8C4
:100AE40038B5084B084D5B1B9C1007D0043B1D44D4
:100AF400013C55F804399847002CF9D1BDE8384039
:100B040000F066B8580C0008540C0008704700BF89
:100B1400704700BF704700BF704700BF704700BFF9
:100B2400704700BF0120704701207047704700BF25
:100B3400704700BF2DE9F047DFF880A00646DAF8D9
:100B4400000098460F469146FFF7EAFF1A4B1B68D0
:100B5400D3F8484124B365681F2D26DC5EB96B1CAD
:100B64000235DAF80000636044F82570FFF7E0FF0F
:100B74000020BDE8F08704EB85010123C1F88890CB
:100B8400D4F88821AB401A43022EC4F88821C1F856
:100B94000881E4D1D4F88C211343C4F88C31DEE706
:100BA40003F5A674C3F84841D5E7DAF80000FFF767
:100BB400BFFF4FF0FF30DCE7400C00083804002092
:100BC40000000000F8B500BFF8BC08BC9E467047A2
:0C0BD400F8B500BFF8BC08BC9E46704796
:100BE0003A3D0A3D0F3D243D323D023D053D133D5A
:100BF0000D3D0C3D233D113D263D013D173D083D7A
:100C0000093D000000000000000000000102030494
:100C10000607080900000000010203043A3D0A3DEE
:100C20000F3D243D323D023D053D133D0D3D0C3D44
:100C3000233D113D263D013D173D083D093D000086
:040C40001000002080
:080C4400C0F5FF7F0100000074
:080C4C00F9090008E9010008A4
:040C5400C5010008CE
:100C5800000000000024F400880400201000002098
:100C680000000000FC02002064030020CC030020E8
:100C7800000000000000000000000000000000006C
:100C8800000000000000000000000000000000005C
:100C9800000000000000000000000000000000004C
:100CA800000000000000000000000000000000003C
:100CB800000000000000000000000000000000002C
:100CC800000000000000000000000000000000001C
:100CD800000000000000000000000000000000000C
:100CE80000000000000000000000000000000000FC
:100CF80000000000000000000000000000000000EC
:100D080000000000000000000100000000000000DA
:100D18000E33CDAB34126DE6ECDE05000B0000009F
:100D280000000000000000000000000000000000BB
:100D380000000000000000000000000000000000AB
:100D4800000000000000000000000000000000009B
:100D5800000000000000000000000000000000008B
:0C108800000000000000000094040020A4
:040000050800088D5A
:00000001FF
