:020000040800F2
:100000000000022045170008951700089517000802
:1000100095170008951700089517000800000000C4
:10002000000000000000000000000000951700081C
:10003000951700080000000095170008BD03000890
:1000400095170008951700089517000895170008E0
:1000500095170008951700089517000895170008D0
:1000600095170008951700089517000895170008C0
:1000700095170008951700089517000895170008B0
:10008000E102000895170008951700089517000869
:100090009517000895170008951700089517000890
:1000A0009517000895170008951700089517000880
:1000B0008502000895170008951700089517000895
:1000C0009517000895170008951700089517000860
:1000D0009517000895170008951700089517000850
:1000E0009517000895170008951700089517000840
:1000F0009517000895170008951700089517000830
:10010000951700089517000895170008951700081F
:10011000951700089517000895170008951700080F
:1001200095170008951700089517000895170008FF
:100130009517000800000000000000009517000857
:1001400095170008951700089517000895170008DF
:1001500095170008951700089517000895170008CF
:1001600095170008951700089517000895170008BF
:100170009517000895170008951700080000000063
:1001800000000000951700080000000000000000BB
:1001900095170008000000000000000095170008F7
:1001A000000000000000000000000000951700089B
:1001B000951700089517000895170008951700086F
:0401C0009517000887
:1001C80010B5054C237833B9044B13B10448AFF389
:1001D80000800123237010BD3C04002000000000B3
:1001E800E827000808B5034B1BB103490348AFF3E0
:1001F800008008BD0000000040040020E827000837
:10020800A3F5803A704700BF174B002B08BF134B6C
:100218009D46FFF7F5FF00218B460F461348144A09
:10022800121A01F0EFFA0E4B002B00D098470D4B35
:10023800002B00D098470020002104000D000D4835
:10024800002802D00C4801F09FFB01F0B7FA20000B
:10025800290001F0F1F901F0A1FA00BF000008003F
:100268000000000000000000000000003C04002026
:1002780070050020911900089D1900084FF080436F
:100288001A69D1070DD51A69124922F001021A61BB
:100298008A79022A0FD08A79032A14D08A79042A03
:1002A8000CD04FF080431A69920703D51A6922F0DF
:1002B80002021A61704701238B71F2E7382000228D
:1002C800D8628A71EDE740F6CA000422D8628A71C2
:1002D800E7E700BF58040020094B5A6812050ED5FD
:1002E800DA6808494FF0804042F4006210B4DA60DE
:1002F8000024022344638B715DF8044B70477047F8
:100308000060024058040020204B1A6842F00102A5
:100318001A601A689207FCD51D4A5A605A681B4928
:1003280022F480025A609A6842F414429A601A6869
:1003380042F080721A600B689801FCD50B6C154A64
:1003480043F080530B64136843F48033136053689D
:10035800D903FCD513680F4943F4003313604B6885
:100368009B03FCD50C4B094A40F205711960936850
:1003780023F003039360936843F002039360936848
:1003880003F00C03082BFAD1704700BF0038024075
:10039800082D000200700040003C02404FF0E023AE
:1003A800034900200722986159611A61704700BF0C
:1003B8001FBF0200044B1A6812B11A68013A1A608A
:1003C8005A6801325A60704740050020024A10609E
:1003D8001368002BFCD1704740050020014B58687A
:1003E800704700BF400500201C491D4A086B40F0BB
:1003F800010010B40863086C0124204308641168E4
:1004080041F400611160116A4FF0804341F480119A
:100418001162382160229C62D9629A61DA681149B6
:100428002243DA60DA6842F48072DA60DA6842F00D
:100438000202DA60DA6842F40072DA605A6842F05E
:1004480008025A601A6A22431A621A684FF08050EA
:1004580022431A605DF8044B086070470038024078
:100468000000024000E100E01A491B4B0A6B002023
:1004780042F400120A63C3F88800D3F88820D20730
:10048800FBD4D3F88820154942F0C062C3F888200D
:10049800D3F8882042F48062C3F88820D3F88820F3
:1004A80042F48042C3F88820D3F8882042F480526E
:1004B800C3F88820D3F8882042F04002C3F8882087
:1004C800D3F888204FF4803042F01002C3F8882017
:1004D80008607047003802400060024000E100E018
:1004E8002DE9F047054698B0AB7903F0FF08002BDB
:1004F800FAD1264F264BC7F890304FF0804A182380
:10050800C7F894D0C7F88C30CAF82480CAF8348069
:10051800DAF8003043F00103CAF80030AB887BB347
:100528002E6803EB430303EB06094FF0010E10247A
:10053800202096F800C07278B3784FEA0C2C4CEA69
:10054800024C4CEA030C6A4617230EFA03F111EA2F
:100558000C0F03F1FF3314BF10601460591C02F133
:100568000402F2D1D7F8883043F00103C7F8883085
:10057800CAF82480AB79022BFCD10336B145D8D117
:100588000323AB7118B0BDE8F08700BF00600240DC
:1005980034000040002360F3070361F30F2362F384
:1005A800174382B0184602B0704700BF2DE9F04FDC
:1005B800044685B00846154600F0BAFCB44B002244
:1005C80000F05AFE064628460F4600F0B1FCB04B34
:1005D800002200F051FE824620468B4600F0B8FC0F
:1005E800B4F5B47F00F02E81AA4B002200F044FE3F
:1005F80004460D4645EC104B01F03EFA204653ECFC
:10060800102B294600F056FB3246804689463B4669
:10061800A149002000F04EFB52465B4600F002FD67
:100628004246CDE900014B463046394600F0FAFC17
:1006380002460B460020984900F03CFB52465B46B8
:1006480000F0F0FC42464B4680468946002092491D
:1006580000F030FB32463B4600F0E4FC02460B4615
:1006680000208D4900F026FB52465B4600F0DAFC7C
:10067800002206460F4600232046294600F058FF70
:1006880000285DD1844B00222046294600F050FF07
:1006980088B300224FF080432046294600F034FFFB
:1006A80048B379A3D3E900234046494600F0BAFC91
:1006B80000F052FF59460446504673A3D3E900237D
:1006C80000F0B0FC00F048FF0546DDE90001E4B2A7
:1006D8006DA3D3E9002300F0A5FC00F03DFFEDB2C7
:1006E800C3B2002064F3070065F30F2063F31740DB
:1006F80005B0BDE8F08F00224FF080432046294620
:1007080000F016FF88BB654B00222046294600F002
:100718000FFF002849D0624B00222046294600F0EE
:10072800F3FE002841D058A3D3E90023DDE90001F6
:1007380000F078FC00F010FF4946044640464EE0C1
:10074800554B00222046294600F0DEFE002899D0AD
:100758004DA3D3E900235046594600F063FC00F04E
:10076800FBFE394604463046A7E74C4B002220469C
:10077800294600F0C9FE0028C5D043A3D3E90023C9
:10078800DDE9000100F04EFC00F0E6FE3EA3D3E9EF
:10079800002304465946504600F044FC00F0DCFEB5
:1007A800E4B205463946304692E73D4B00222046E2
:1007B800294600F0BDFEF0B13A4B002220462946FA
:1007C80000F0A2FEB8B130A3D3E900233046394681
:1007D80000F028FC00F0C0FE0446DDE900012AA371
:1007E800D3E9002300F01EFC00F0B6FEE4B2054693
:1007F800594650466CE72B4B00222046294600F00C
:1008080097FE00283CD0284B20462946002200F0BD
:100818007BFEA8B31CA3D3E900235046594600F039
:1008280001FC00F099FE18A3D3E900230446DDE992
:10083800000100F0F7FB00F08FFEE4B205464946E0
:10084800404645E710A3D3E900235046594600F037
:10085800E9FB00F081FE32463B460F49C4B2002056
:1008680000F028FA52465B4600F0DCFB06A3D3E909
:10087800002300F0D7FB00F06FFEC5B22B4630E72F
:100888000346054604462CE70000000000E06F40E0
:100898000000594000004E400000F03F00000840B2
:1008A8000000104000001440000018404FF0000CF9
:1008B8000160828080F806C0704700BF818851B10E
:1008C800036801EB4101194400221A705A709A70AA
:1008D80003338B42F9D170474C2C000800000020EC
:1008E8003C0400203C04002070050020034AD2F894
:1008F800883043F47003C2F88830704700ED00E098
:10090800164A936803F00C03042B0CD0082B0CD068
:10091800134B124A134892681349C2F30312825CBC
:10092800D3400B607047114BF3E75368516813F4D9
:10093800800F01F03F01536814BF0C4A084AB2FB0C
:10094800F1F1064A5268C2F30142C3F38813013237
:1009580001FB03F35200B3FBF2F3DAE7003802407D
:100968000024F400282800080400002040787D01B5
:10097800704700BF0120704708B500F009FF162333
:1009880003604FF0FF3008BD08B500F001FF1623E3
:100998000360FEE770B5161E07DD0C468D19AFF330
:1009A800008004F8010BA542F9D1304670BD00BFA4
:1009B80070B5161E07DD0C468D1914F8010BAFF340
:1009C8000080A542F9D1304670BD00BF4FF0FF301E
:1009D800704700BF4FF400534B600020704700BFC2
:1009E80001207047002070470EB44FF0FF3003B06D
:1009F800704700BF08B500F0CBFE0A2303604FF034
:100A0800FF3008BD08B500F0C3FE022303604FF0B5
:100A1800FF3008BD4FF0FF30704700BF4FF4005360
:100A28004B600020704700BF08B500F0B1FE1F23DF
:100A380003604FF0FF3008BD08B500F0A9FE0B2396
:100A480003604FF0FF3008BD08B500F0A1FE0C238D
:100A580003604FF0FF3008BD70B54FF0FF0C4CF449
:100A6800E06C1CEA11541DBF1CEA135594EA0C0FE4
:100A780095EA0C0F00F0DEF82C4481EA030621EA1F
:100A88004C5123EA4C5350EA013518BF52EA03355A
:100A980041F4801143F4801338D0A0FB02CE4FF00C
:100AA8000005E1FB02E506F00042E0FB03E54FF03C
:100AB8000006E1FB03569CF0000F18BF4EF0010E34
:100AC800A4F1FF04B6F5007F64F5407404D25FEA30
:100AD8004E0E6D4146EB060642EAC62141EA5551E3
:100AE8004FEAC52040EA5E504FEACE2EB4F1FD0C25
:100AF80088BFBCF5E06F1ED8BEF1004F08BF5FEAA3
:100B0800500E50F1000041EB045170BD06F0004654
:100B180046EA010140EA020081EA0301B4EB5C0401
:100B2800C2BFD4EB0C0541EA045170BD41F48011F9
:100B38004FF0000E013C00F3AB8014F1360FDEBF1E
:100B4800002001F0004170BDC4F10004203C35DAFA
:100B58000C341BDC04F11404C4F1200500FA05F37D
:100B680020FA04F001FA05F240EA020001F000421E
:100B780021F0004110EBD37021FA04F642EB060194
:100B88005EEA430E08BF20EAD37070BDC4F10C04BE
:100B9800C4F1200500FA04F320FA05F001FA04F282
:100BA80040EA020001F0004110EBD37041F100016E
:100BB8005EEA430E08BF20EAD37070BDC4F1200579
:100BC80000FA05F24EEA020E20FA04F301FA05F2E1
:100BD80043EA020321FA04F001F0004121FA04F289
:100BE80020EA020000EBD3705EEA430E08BF20EA59
:100BF800D37070BD94F0000F0FD101F00046400093
:100C080041EB010111F4801F08BF013CF7D041EA14
:100C1800060195F0000F18BF704703F00046520018
:100C280043EB030313F4801F08BF013DF7D043EAE9
:100C38000603704794EA0C0F0CEA135518BF95EA9F
:100C48000C0F0CD050EA410618BF52EA4306D1D126
:100C580081EA030101F000414FF0000070BD50EA45
:100C6800410606BF1046194652EA430619D094EACF
:100C78000C0F02D150EA013613D195EA0C0F05D1B9
:100C880052EA03361CBF104619460AD181EA03010D
:100C980001F0004141F0FE4141F470014FF00000C5
:100CA80070BD41F0FE4141F4780170BD81F0004112
:100CB80002E000BF83F0004330B54FEA41044FEA39
:100CC800430594EA050F08BF90EA020F1FBF54EAD4
:100CD800000C55EA020C7FEA645C7FEA655C00F070
:100CE800E2804FEA5454D4EB5555B8BF6D420CDD41
:100CF8002C4480EA020281EA030382EA000083EAC4
:100D0800010180EA020281EA0303362D88BF30BD63
:100D180011F0004F4FEA01314FF4801C4CEA1131B9
:100D280002D0404261EB410113F0004F4FEA033318
:100D38004CEA133302D0524263EB430394EA050FA3
:100D480000F0A780A4F10104D5F1200E0DDB02FA12
:100D58000EFC22FA05F2801841F1000103FA0EF2A6
:100D6800801843FA05F359410EE0A5F120050EF16C
:100D7800200E012A03FA0EFC28BF4CF0020C43FA9D
:100D880005F3C01851EBE37101F0004507D54FF0AA
:100D9800000EDCF1000C7EEB00006EEB0101B1F5FA
:100DA800801F1BD3B1F5001F0CD349085FEA300040
:100DB8004FEA3C0C04F101044FEA445212F5800F4B
:100DC80080F09A80BCF1004F08BF5FEA500C50F1E8
:100DD800000041EB045141EA050130BD5FEA4C0CCB
:100DE800404141EB0101013C28BFB1F5801FE9D228
:100DF80091F0000F04BF01460020B1FA81F308BF4B
:100E08002033A3F10B03B3F120020CDA0C3208DD16
:100E180002F1140CC2F10C0201FA0CF021FA02F1F1
:100E28000CE002F11402D8BFC2F1200C01FA02F161
:100E380020FA0CFCDCBF41EA0C019040E41AA2BF86
:100E480001EB0451294330BD6FEA04041F3C1CDA4E
:100E58000C340EDC04F11404C4F1200220FA04F06E
:100E680001FA02F340EA030021FA04F345EA030118
:100E780030BDC4F10C04C4F1200220FA02F001FADA
:100E880004F340EA0300294630BD21FA04F029465C
:100E980030BD94F0000F83F4801306BF81F48011F5
:100EA8000134013D4EE77FEA645C18BF7FEA655C68
:100EB80029D094EA050F08BF90EA020F05D054EA3A
:100EC800000C04BF1946104630BD91EA030F1EBF3F
:100ED8000021002030BD5FEA545C05D14000494143
:100EE80028BF41F0004130BD14F580043CBF01F536
:100EF800801130BD01F0004545F0FE4141F470011C
:100F08004FF0000030BD7FEA645C1ABF19461046F6
:100F18007FEA655C1CBF0B46024650EA013406BFF7
:100F280052EA033591EA030F41F4002130BD00BFB6
:100F380090F0000F04BF0021704730B54FF4806473
:100F480004F132044FF000054FF0000150E700BFF4
:100F580090F0000F04BF0021704730B54FF4806453
:100F680004F1320410F0004548BF40424FF0000140
:100F78003EE700BF42004FEAE2014FEA31014FEA83
:100F880002701FBF12F07F4393F07F4F81F06051D2
:100F9800704732F07F4208BF704793F07F4F04BF1D
:100FA80041F40021704730B54FF4607401F00045FA
:100FB80021F000411CE700BF50EA010208BF70475A
:100FC80030B54FF000050AE050EA010208BF70474B
:100FD80030B511F0004502D5404261EB41014FF4B4
:100FE800806404F132045FEA915C3FF4D8AE4FF0BC
:100FF80003025FEADC0C18BF03325FEADC0C18BF9F
:10100800033202EBDC02C2F1200300FA03FC20FAEF
:1010180002F001FA03FE40EA0E0021FA02F114443C
:10102800BDE600BF70B54FF0FF0C4CF4E06C1CEA55
:1010380011541DBF1CEA135594EA0C0F95EA0C0FC6
:1010480000F0DEF82C4481EA030621EA4C5123EA39
:101058004C5350EA013518BF52EA033541F4801168
:1010680043F4801338D0A0FB02CE4FF00005E1FB1B
:1010780002E506F00042E0FB03E54FF00006E1FB65
:1010880003569CF0000F18BF4EF0010EA4F1FF04A8
:10109800B6F5007F64F5407404D25FEA4E0E6D41E8
:1010A80046EB060642EAC62141EA55514FEAC520F9
:1010B80040EA5E504FEACE2EB4F1FD0C88BFBCF575
:1010C800E06F1ED8BEF1004F08BF5FEA500E50F126
:1010D800000041EB045170BD06F0004646EA0101EC
:1010E80040EA020081EA0301B4EB5C04C2BFD4EB1E
:1010F8000C0541EA045170BD41F480114FF0000E17
:10110800013C00F3AB8014F1360FDEBF002001F084
:10111800004170BDC4F10004203C35DA0C341BDCFE
:1011280004F11404C4F1200500FA05F320FA04F0D0
:1011380001FA05F240EA020001F0004221F0004104
:1011480010EBD37021FA04F642EB06015EEA430E77
:1011580008BF20EAD37070BDC4F10C04C4F12005A7
:1011680000FA04F320FA05F001FA04F240EA02005A
:1011780001F0004110EBD37041F100015EEA430E2B
:1011880008BF20EAD37070BDC4F1200500FA05F24B
:101198004EEA020E20FA04F301FA05F243EA0203CA
:1011A80021FA04F001F0004121FA04F220EA0200D9
:1011B80000EBD3705EEA430E08BF20EAD37070BD1F
:1011C80094F0000F0FD101F00046400041EB0101FF
:1011D80011F4801F08BF013CF7D041EA060195F0E1
:1011E800000F18BF704703F00046520043EB03039B
:1011F80013F4801F08BF013DF7D043EA0603704788
:1012080094EA0C0F0CEA135518BF95EA0C0F0CD092
:1012180050EA410618BF52EA4306D1D181EA0301D8
:1012280001F000414FF0000070BD50EA410606BFD2
:101238001046194652EA430619D094EA0C0F02D117
:1012480050EA013613D195EA0C0F05D152EA03365C
:101258001CBF104619460AD181EA030101F000417A
:1012680041F0FE4141F470014FF0000070BD41F0C3
:10127800FE4141F4780170BD70B54FF0FF0C4CF49D
:10128800E06C1CEA11541DBF1CEA135594EA0C0FBC
:1012980095EA0C0F00F0A7F8A4EB050481EA030E09
:1012A80052EA03354FEA013100F088804FEA0333F0
:1012B8004FF0805545EA131343EA12634FEA0222BE
:1012C80045EA111545EA10654FEA00260EF000417F
:1012D8009D4208BF964244F1FD0404F5407402D2D1
:1012E8005B084FEA3202B61A65EB03055B084FEA62
:1012F80032024FF480104FF4002CB6EB020E75EB5F
:10130800030E22BFB61A754640EA0C005B084FEA86
:101318003202B6EB020E75EB030E22BFB61A754603
:1013280040EA5C005B084FEA3202B6EB020E75EB4E
:10133800030E22BFB61A754640EA9C005B084FEAC6
:101348003202B6EB020E75EB030E22BFB61A7546D3
:1013580040EADC0055EA060E18D04FEA051545EAC2
:1013680016754FEA06164FEAC30343EA52734FEA6B
:10137800C2025FEA1C1CC0D111F4801F0BD141EAE4
:1013880000014FF000004FF0004CB6E711F4801F49
:1013980004BF01430020B4F1FD0C88BFBCF5E06F29
:1013A8003FF6AFAEB5EB030C04BFB6EB020C5FEA39
:1013B800500C50F1000041EB045170BD0EF0004E8E
:1013C8004EEA113114EB5C04C2BFD4EB0C0541EAC0
:1013D800045170BD41F480114FF0000E013C90E6BD
:1013E80045EA060E8DE60CEA135594EA0C0F08BF81
:1013F80095EA0C0F3FF43BAF94EA0C0F0AD150EA80
:1014080001347FF434AF95EA0C0F7FF425AF104612
:1014180019462CE795EA0C0F06D152EA03353FF43A
:10142800FDAE1046194622E750EA410618BF52EAB7
:1014380043067FF4C5AE50EA41047FF40DAF52EA8B
:1014480043057FF4EBAE12E74FF0FF3C06E000BF28
:101458004FF0010C02E000BF4FF0010C4DF804CD35
:101468004FEA410C7FEA6C5C4FEA430C18BF7FEAF5
:101478006C5C1BD001B050EA410C0CBF52EA430C23
:1014880091EA030F02BF90EA020F0020704710F1A3
:10149800000F91EA030F58BF994208BF90422CBF32
:1014A800D8176FEAE37040F0010070474FEA410C2B
:1014B8007FEA6C5C02D150EA013C07D14FEA430C49
:1014C8007FEA6C5CD6D152EA033CD3D05DF8040BBA
:1014D800704700BF8446104662468C4619466346EC
:1014E80000E000BF01B5FFF7B7FF002848BF10F1C3
:1014F800000F01BD4DF808EDFFF7F4FF0CBF012008
:1015080000205DF808FB00BF4DF808EDFFF7EAFF83
:1015180034BF012000205DF808FB00BF4DF808ED3E
:10152800FFF7E0FF94BF012000205DF808FB00BF33
:101538004DF808EDFFF7CEFF94BF012000205DF8BD
:1015480008FB00BF4DF808EDFFF7C4FF34BF0120CA
:1015580000205DF808FB00BF4A0011D212F5001206
:1015680011D20DD56FF47873B3EB62520ED44FEAF3
:10157800C12343F0004343EA505323FA02F0704773
:101588004FF00000704750EA013002D14FF0FF30B1
:1015980070474FF0000070474FEA4102B2F1E04354
:1015A80024BFB3F5001CDCF1FE5C0DD901F0004C42
:1015B8004FEAC0024CEA5070B2F1004F40EB830092
:1015C80008BF20F00100704711F0804F21D113F1BE
:1015D8003872BCBF01F00040704741F480114FEAF7
:1015E8005252C2F11802C2F1200C10FA0CF320FA80
:1015F80002F018BF40F001004FEAC1234FEAD3239D
:1016080003FA0CFC40EA0C0023FA02F34FEA430306
:10161800CCE77FEA625307D150EA01331EBF4FF08F
:10162800FE4040F44000704701F0004040F0FE40AA
:1016380040F40000704700BF2DE9F04F2DED028BFC
:1016480083B0FEF761FEFEF7CFFEFEF70DFF384AC6
:10165800384DD2F88830DFED388A6C4643F4700391
:10166800C2F8883005F1080120464A22FFF71EF922
:1016780094E803000FF2A809D9E9008985E8030076
:101688004FF0000BAB7903F0FF04002BFAD158465A
:10169800FFF770FC4B464246FFF70EFBFFF77CFF57
:1016A800AB888346C3B3FFF765FCA24606460F46E0
:1016B800B7EE008A0AF1010A5046FFF749FC1AA35F
:1016C800D3E90023FFF7AEFC3B463246FFF7F4FAB6
:1016D800FFF762FF00EE100A00F052FA30EE080A37
:1016E800F6EE007A60EE277A142267EEA87A642173
:1016F800FDEEE77A17EE900AFEF758FF2B681855AB
:101708002344C0F307225A70AA88C0F307409245C1
:10171800987004F10304CDDB0648FEF7E1FEB1E75B
:101728009A9999999999A93F9A9999999999B93FA3
:1017380000ED00E0580400200000B443DFF834D086
:101748000D480E490E4A002302E0D458C450043311
:10175800C4188C42F9D30B4A0B4C002301E01360E8
:101768000432A242FBD3FFF7C1F800F027F8FFF7D5
:1017780063FF704700000220000000203C040020A6
:101788004C2C00083C04002070050020FEE70000F7
:10179800014B1868704700BF0C00002008B50021F5
:1017A800044600F08BF8044B1868C36B03B19847E4
:1017B8002046FFF7E9F800BF6428000870B50D4E11
:1017C8000D4D761BB61006D0002455F8043B0134A5
:1017D8009847A642F9D1094E094D761B01F002F847
:1017E800B61006D0002455F8043B01349847A642A9
:1017F800F9D170BD402C0008402C0008482C000886
:10180800402C0008830730B548D0541E002A3FD02A
:10181800CAB2034601E0013C3AD303F8012B9D0705
:10182800F9D1032C2DD9CDB245EA05250F2C45EA6F
:10183800054536D9A4F1100222F00F0C03F1200E51
:10184800E6444FEA121C03F1100242E9045542E94A
:10185800025510327245F8D10CF1010214F00C0F48
:1018680003EB021204F00F0C13D0ACF1040323F0C5
:1018780003030433134442F8045B9342FBD10CF096
:1018880003042CB1CAB21C4403F8012B9C42FBD1BF
:1018980030BD64461346002CF4D1F9E703461446DC
:1018A800BFE71A46A446E0E7024B13B1024800F02E
:1018B8006BB87047000000009D1900082DE9F84F2B
:1018C8002F4B2DED028B834618680F4600F082F8E7
:1018D8002C4BD3F80080D8F84861AEB108EE10BAA6
:1018E8004FF001094FF0000A7468651E0CD40134EA
:1018F80006EB840487B1D4F80031BB420CD0013D1B
:101908006B1CA4F10404F5D1BDEC028B1C4B1868C8
:10191800BDE8F84F00F066B873682268013BAB4237
:101928000CBF7560C4F800A0002AE8D0D6F888017A
:10193800D6F804B009FA05F101420BD19047726854
:101948005A4513D1D8F84831B342D8D01E46002E94
:10195800CAD1D9E7D6F88C0101420CD1D4F880104D
:1019680018EE100A904772685A45EBD0D8F84861CB
:10197800002EB9D1C8E7D4F880009047DFE700BF50
:101988003804002064280008002301461A46184637
:1019980000F02AB838B5084B084D5B1B9C1007D0DF
:1019A800043B1D44013C55F804399847002CF9D1F3
:1019B800BDE8384000F01CBF4C2C0008482C00083B
:1019C800704700BF704700BF704700BF704700BF37
:1019D800704700BF704700BF012070470120704763
:1019E800704700BF704700BF2DE9F047DFF880A0BF
:1019F8000646DAF8000098460F469146FFF7EAFFD8
:101A08001A4B1B68D3F8484124B365681F2D26DCA0
:101A18005EB96B1C0235DAF80000636044F8257083
:101A2800FFF7E0FF0020BDE8F08704EB8501012304
:101A3800C1F88890D4F88821AB401A43022EC4F824
:101A48008821C1F80881E4D1D4F88C211343C4F863
:101A58008C31DEE703F5A674C3F84841D5E7DAF818
:101A68000000FFF7BFFF4FF0FF30DCE764280008F5
:101A7800380400200000000051EC100BF8B5C1F349
:101A88000A53A3F2FF35132D10EE106A0C4630DC12
:101A9800002D1EDB384F2F4101EA070303432DD0E9
:101AA80033A3D3E90023FFF707F900220023FFF748
:101AB80049FD48B1002C04DA4FF4801343FA05F5C8
:101AC8002C4424EA070400262346324643EC102B14
:101AD800F8BD27A3D3E90023FFF7EEF8002200237F
:101AE800FFF730FD0028EFD0002C29DB0026344614
:101AF800EAE7332D05DDB5F5806F19D041EC100B01
:101B0800F8BDA3F213434FF0FF37DF400742F5D08B
:101B180017A3D3E90023FFF7CFF800220023FFF72C
:101B280011FD0028D0D0002C13DB26EA0706CBE7EE
:101B380010EE102A0B46FFF7BFF841EC100BF8BD6A
:101B480024F000430D4A1E43002E18BF14460026F9
:101B5800BAE7142D08D00123C5F1340503FA05F5B9
:101B6800AE1928BFE418E0E70134DEE7AFF30080E0
:101B78009C7500883CE4377EFFFF0F000000F0BF33
:101B880010EE103A194A23F0004393421CDDB3F1DA
:101B9800FF4F02DB30EE400A704700B583B068465D
:101BA80000F028F800F003000128DDED010A9DEDA2
:101BB800000A0ED0022813D070B100F04DF9B1EE32
:101BC800400A03B05DF804FBDFED090A002000F0CD
:101BD800FFBC00F041F9F4E7012000F0F9FCF0E760
:101BE800012000F0F5FCB1EE400AEAE7D80F493FC2
:101BF8000000000070B510EE103A894A23F0004446
:101C0800944286B0054670DD864A944210EE106A0A
:101C180022DC002BDFED847A844A24F00F04B0EE36
:101C2800407A40F3E480944270EE677A09BFDFEDB2
:101C3800806A9FED807A9FED807A77EEE67A0120C0
:101C480077EEC76A77EEE67AC5ED006A77EEC77A6F
:101C5800C5ED017A06B070BD784A944254DDB4F1FE
:101C6800FF4F49DAE215863AA4EBC25307EE903AE1
:101C7800BDEEE77ADFED726AB8EEC77A77EEC77A1B
:101C88008DED037A67EEA67ABDEEE77AB8EEC77AED
:101C980077EEC77A8DED047A67EEA67AF5EE407A8C
:101CA800F1EE10FACDED057A40F09080B5EE407A6D
:101CB800F1EE10FA14BF02230123624901910221B7
:101CC800009103A8294600F049F9002EC2DA95EDE3
:101CD800007AD5ED017AB1EE477AF1EE677A85EDB3
:101CE800007AC5ED017A4042B4E7002285ED000A8A
:101CF8004260002006B070BD70EE407A0020C5ED4D
:101D0800017AC5ED007AA5E700F0AAFC9FED4E7AAE
:101D18009FED456AF6EE007AE0EE077A9FED457A88
:101D2800FDEEE77A17EE900AF8EEE76A1F28A6EEAE
:101D3800C60A66EE877AB1EE666A1EDC434A411E21
:101D480024F0FF0352F82120934216D030EE677A30
:101D580085ED007A30EE470A002E30EE670A85EDF1
:101D6800010ABFF677AFB1EE477AB1EE400A85EDCA
:101D7800007A85ED010A40426CE730EE677AE21599
:101D880017EE103AC3F3C753C3EBD454082CDFDD66
:101D9800DFED277A9FED287AF0EE405AE6EE275AD3
:101DA80030EE650AA6EE270AF0EE407AD6EE877A7C
:101DB80035EEE77A17EE103AC3F3C753D21A192A49
:101DC80006DCB0EE650A85ED007AC3E7032374E705
:101DD8009FED1F7A9FED1F5AB0EE650AA6EE070A1F
:101DE80075EEC07AE6EE077AD6EE857AAEE79442CB
:101DF80070EE277A09BFDFED0E6A9FED0E7A9FED30
:101E08000E7A77EEA67A4FF0FF3077EE876A77EE94
:101E1800E67AC5ED006A77EE877AC5ED017A19E7AB
:101E2800D80F493FE3CB1640800FC93FD00FC93FB9
:101E3800004435374344353708A3852E800F49437E
:101E480000008043E828000884F9223F6828000839
:101E580000A3852E32318D2410EE103A23F0004372
:101E6800B3F1485F2CDAFDEEC07A17EE903A002BFA
:101E780060D020EE007ADFED317A9FED315ADFED48
:101E8800315A9FED316ADFED316AA7EE275ADFED4F
:101E9800307AE7EE055AA7EE256AE7EE067AE7EE0E
:101EA800276A67EE266A60EEC00AF6EE007AE7EE69
:101EB800260AB7EE000AD7EE270A30EE600A704706
:101EC80020EE007ADFED1D7A9FED1D5ADFED1D5AD9
:101ED8009FED1D6ADFED1D6A1E4AA7EE275A934241
:101EE800DFED1B7AE5EE075AA5EE876AE6EE077A7C
:101EF800E7EE876A66EE876AD5DD174A934214DCF7
:101F080003F17F4307EE903AB7EE006A36EE676A50
:101F180060EEC00AF6EE005AD7EE257AE7EE260AFA
:101F280077EEE00A36EE600A7047B6EE076AF5EE1D
:101F3800027AEDE7B7EE000A704700BF4ED747AD0B
:101F4800F6740F317CF293B4010DD037ABAA2A3D59
:101F5800610BB6BA9999993E0000483F2DE9F04FB8
:101F68002DED048BDBB01C4603930691A34B6899B7
:101F7800089253F82150111D824604F1FF38C0F22F
:101F8800A282D31E44BF13460433DB1002930133ED
:101F9800DB000793DDE907239B1A0593029B15EBEA
:101FA8000801A3EB080316D401319FED957A6998CF
:101FB80019441EAA002BA4BF50F8234007EE904AEC
:101FC80003F10103ACBFF8EEE77AF0EE477A8B42F3
:101FD800E2EC017AEED1002DC0F2E582039B1EA946
:101FE80001EB830446AE4FEA830C4046EF180AEB38
:101FF8008301B8F1000FDFED827A09DB22465346F0
:10200800F3EC016A32ED017A8B42E6EE877AF7D17A
:102018000130B842E6EC017A04F10404E9D109ABD5
:102028000AAF03EB850907EB8503083B9FED769A1A
:10203800DFED748A059804930AEB0C0446AE00950C
:102048005AAB03EB8503002D13ED140A4FEA850BF9
:1020580016DD06EB85033A4660EE097AB0EE407A63
:10206800FDEEE77A73ED016AF8EEE77AB342A7EE80
:10207800E87A37EEA60ABDEEC77AA2EC017AEBD170
:10208800019000F03BFBB0EE408AB4EE000A28EE67
:10209800000A00F0EDFAF2EE007AA0EE678A0198E5
:1020A8000028FDEEC89AF8EEE97A38EE678A79DDFD
:1020B80005F1FF3EC0F1080357F82E1041FA03FC62
:1020C8000CFA03F3CB1AC0F1070219EE901A43FA7F
:1020D80002F26144002A47F82E3009EE901A69DCB2
:1020E800B5EE408AF1EE10FA40F0C180009B05F190
:1020F800FF3B5B4510DC05F18043013B07EB8303A5
:102108000021944653F804294B4541EA0201F9D1CC
:102118006246002940F0F380009B013B57F82330CA
:10212800002B40F0E880049B4FF0010C53F8042981
:102138000CF1010C002AF9D06B1CAC449E46039AA2
:102148005119029A02EB030B0BF1804B699A0BF1C0
:10215800FF3B06EB83051EAB02EB8B0B03EB810108
:10216800DBED017A9FED267AF8EEE77AB8F1000FF9
:102178000BF1040BC1ED007A0A4601F1040109DBF9
:10218800534601E072ED017AF3EC016AA342A6EE30
:10219800A77AF7D10EF1010EE645A5EC017ADFDD4D
:1021A80065464DE740F09D806B1E57F823201212BC
:1021B800002A95DD19EE903A002D03F1010309EE8E
:1021C800903A40F396813968002940F08080012DCB
:1021D80026D03B464FF0010C53F8041F00297AD053
:1021E8000CF10103C1F580719D4247F82C1016DDF2
:1021F80057F82310BB4407EB83030AE02C2C000894
:1022080000000000000080430000803B0000C93F40
:102218001968C1F1FF0143F8041B5B45F8D101219E
:1022280000280CDD012800F04581022807D105F1BE
:10223800FF3C57F82C3003F03F0347F82C30022AB4
:102248007FF44EAFB7EE000A30EE488A00293FF41B
:1022580047AF0992019000F051FA38EE408A099A86
:102268000198B5EE408AF1EE10FA3FF43FAF0292C2
:10227800DDE90732B0EE480A981A0195009D00F092
:102288003DFA1FED207AB4EEC70AF1EE10FADDE947
:102298000132C0F256815FED247A059960EE277A03
:1022A8000831FDEEE77A0591F8EEE77A03F1010BC4
:1022B800A7EEC70AFDEEE77ABDEEC00A10EE101AC7
:1022C80047F8231017EE903A47F82B302EE00123F9
:1022D8004FF0000C86E70CF1010CAC457FF47CAFA5
:1022E8009EE7F6EE007AB4EEE78AF1EE10FA80F295
:1022F800EF800022F4E66B1C9E469C461FE705997A
:10230800A1F1080057F82B1005902B46009D69B9DC
:1023180003F18043023B07EB8303014653F80409AA
:102328000BF1FF3B08390028F8D005910598009279
:10233800B7EE000A00F0E2F9BBF1000F009AC0F214
:1023480025814FEA8B0E46AB03EB0E060EF1040C0B
:102358001FED537A07EB0C03311D73ED017AF8EE8C
:10236800E77ABB4267EE807A20EE070A61ED017AD0
:10237800F3D1002D1FED5B6A4FF0000420DB92487B
:10238800DFED927AB0EE467A3146002303E09C42B4
:1023980008DBB0EC017AF1EC016A01339D42E6EE0C
:1023A800877AF4DA5AAB03EB8403A34543ED287A22
:1023B800A6F1040604F1010305D0002D1C46DEDA5F
:1023C800DFED827AEEE7689902291CDC002900F328
:1023D80092800FD132ABDFED7D7A9C443CED017ADF
:1023E800634577EE877AF9D10AB1F1EE677A069BF1
:1023F800C3ED007A19EE903A03F007005BB0BDEC2C
:10240800048BBDE8F08F689B032BF3D1BBF1000F61
:1024180000F0D1805AAB734432A913ED287A01EB4E
:102428008B0373ED017AF0EE476A37EE277A99420B
:1024380077EEC77A83ED007A77EEA67AC3ED017A54
:10244800EFD1BBF1010F40F3B6800BF1804B5AABD3
:102458000BF1FF3B9E444FEA8B0B0BF104031EED7F
:10246800287A0B4433A873ED017AF0EE476A37EE09
:10247800277A984277EEC77A83ED007A77EEA67AC4
:10248800C3ED017AEFD10BF1080BDFED507A01EBC8
:102498000B03083133ED017A994277EE877AF9D147
:1024A800002A56D10699329A339B0A604B60C1EDD7
:1024B800027A9FE705F1FF3C57F82C3003F07F03C1
:1024C80047F82C30BBE6082307930023029361E505
:1024D80019EE903A002D03F1010309EE903AC8BFB6
:1024E80002223FF770AEF7EE007A37EEC88A022272
:1024F800F6E5002194E632A9DFED347A01EB830397
:1025080033ED017A994277EE877AF9D19DED327AE7
:102518008ABB069BBBF1000FC3ED007A77EE677AA2
:102528000BDD33A90123B1EC017A01339B4577EE2A
:10253800877AF8DA0AB1F1EE677A069BC3ED017A79
:1025480058E7BDEEC00A9B4610EE101A47F8231054
:10255800ECE6DDED326A9DED337A069BF1EE666AB4
:10256800B1EE477AF1EE677AC3ED006A83ED017A3E
:10257800C3ED027A3EE7069BF1EE676ABBF1000FF6
:1025880077EE677AC3ED006ACBDCD4E7689B022B51
:102598000DDC002B14DC7FF42DAFDFED0C7A002A64
:1025A8003FF425AF21E7039B4FEA830C37E5689B8F
:1025B800032B7FF41FAFDFED057A002AC9D171E73D
:1025C800DFED027AA2E700BF042C0008000000003B
:1025D80010EE103A23F00043B3F1485F04DAFDEE41
:1025E800C07A17EE903A5BB360EE007A9FED157AE9
:1025F800DFED155A9FED156ADFED156AE7EE875A8C
:102608009FED147AA5EEA76A20EE275AE6EE276A10
:10261800A6EEA77A30B9DFED106AE7EE876AA6EE74
:10262800850A704727EE457AF6EE006AA0EEA67A8C
:10263800DFED0A6AD7EE270AE5EE260A30EE600AD1
:10264800704700BFD3C92E2F342FD7B21BEF3836AF
:10265800010D50B98988083CABAA2ABEABAA2A3E0C
:1026680010EE103A23F0004300EE103A704700BF16
:1026780010EE102AC2F3C7537F3B162B22F00041FD
:1026880028DC002B18DB1A4919410A4221D0DFED5A
:10269800197A70EE277AF5EEC07AF1EE10FA18DDA5
:1026A800002A04DA4FF4000040FA03F31A4422EA3D
:1026B800010300EE103A7047DFED0E7A70EE277ACC
:1026C800F5EEC07AF1EE10FA03DD002A08DB9FED83
:1026D8000A0A7047B1F1FF4FFBD330EE000A70478A
:1026E800FFEE007A002918BFB0EE670A704700BFF6
:1026F800FFFF7F00CAF249710000000082B08DED33
:10270800010A019B33F000422AD0B2F1FF4F23D2D5
:1027180013F0FF4F28D19DED017ADFED2A7A2A4B7D
:1027280067EE277A9842CDED017A37DB019BC3F338
:10273800C752193A0244FE2A1ADD9FED240A9FED7A
:10274800247A019B002BF0EE407AB8BFB0EE470A1E
:1027580020EE270A02B0704730EE000A02B0704738
:102768009DED010A02B07047D20D0244FE2AE4DC56
:10277800002A0BDC12F1160F17DA4CF2503398428C
:10278800DBDC9FED140A9FED147ADAE723F0FF43B0
:1027980043EAC25300EE103A02B070479FED0D0AAB
:1027A800DDED017A27EE800AD8E7193223F0FF43DE
:1027B80043EAC253DFED097A07EE103A27EE270AFB
:1027C800CCE700BF0000004CB03CFFFFCAF24971E3
:1027D800CAF249F16042A20D6042A28D00000033A6
:1027E80000000000F8B500BFF8BC08BC9E46704762
:0C27F800F8B500BFF8BC08BC9E46704756
:102804003A3D0A3D0F3D243D323D023D053D133D19
:102814000D3D0C3D233D113D263D013D173D083D39
:10282400093D000000000000000000000102030454
:102834000607080900000000010203043A3D0A3DAE
:102844000F3D243D323D023D053D133D0D3D0C3D04
:10285400233D113D263D013D173D083D093D000046
:1028640010000020000FC93F000F494000CB9640E4
:10287400000FC9400053FB4000CB164100ED2F412F
:10288400000F49410031624100537B41003A8A41C3
:1028940000CB9641005CA34100EDAF41007EBC41FA
:1028A400000FC94100A0D5410031E24100C2EE4110
:1028B4000053FB4100F20342003A0A4200831042F3
:1028C40000CB164200141D42005C234200A529429D
:1028D40000ED2F4200363642007E3C4200C74242A1
:1028E400000F4942A2000000F9000000830000002C
:1028F4006E0000004E0000004400000015000000BF
:1029040029000000FC000000270000005700000020
:10291400D1000000F500000034000000DD000000DC
:10292400C0000000DB000000620000009500000011
:10293400990000003C0000004300000090000000EB
:1029440041000000FE000000510000006300000090
:10295400AB000000DE000000BB000000C50000006A
:1029640061000000B7000000240000006E000000B9
:102974003A000000420000004D000000D2000000B8
:10298400E000000006000000490000002E000000E6
:10299400EA00000009000000D100000092000000DD
:1029A4001C000000FE0000001D000000EB00000001
:1029B4001C000000B100000029000000A700000076
:1029C4003E000000E8000000820000003500000026
:1029D400F50000002E000000BB00000044000000D1
:1029E40084000000E90000009C000000700000006A
:1029F40026000000B40000005F0000007E0000001C
:102A0400410000003900000091000000D6000000E1
:102A1400390000008300000053000000390000006A
:102A2400F40000009C000000840000005F0000002F
:102A34008B000000BD000000F90000002800000029
:102A44003B0000001F000000F80000009700000099
:102A5400FF000000DE0000000500000098000000F8
:102A64000F000000EF0000002F0000001100000024
:102A74008B0000005A0000000A0000006D000000F6
:102A84001F0000006D000000360000007E00000002
:102A9400CF00000027000000CB0000000900000068
:102AA400B70000004F000000460000003F00000097
:102AB400660000009E0000005F000000EA000000C5
:102AC4002D0000007500000027000000BA0000007F
:102AD400C7000000EB000000E5000000F10000006A
:102AE4007B0000003D0000000700000039000000EA
:102AF400F70000008A00000052000000920000006D
:102B0400EA0000006B000000FB0000005F00000012
:102B1400B10000001F0000008D0000005D000000F7
:102B24000800000056000000030000003000000010
:102B340046000000FC0000007B0000006B00000069
:102B4400AB000000F0000000CF000000BC0000005B
:102B5400200000009A000000F4000000360000008D
:102B64001D000000A9000000E30000009100000027
:102B7400610000005E000000E60000001B00000091
:102B840008000000650000009900000085000000B6
:102B94005F00000014000000A000000068000000B6
:102BA400400000008D000000FF000000D80000007D
:102BB400800000004D0000007300000027000000AA
:102BC40031000000060000000600000015000000AF
:102BD40056000000CA00000073000000A8000000B6
:102BE400C900000060000000E20000007B0000005B
:102BF400C00000008C0000006B0000000000C93F12
:102C04000000F0390000DA370000A2330000842EFF
:102C14000000502B0000C2270000D0220000C41F77
:102C24000000C61B00004417040000000700000059
:042C34000900000093
:082C3800D0D5FF7F0100000070
:082C4000B1180008ED010008C5
:042C4800C9010008B6
:102C4C00000000000024F4004805002010000020C3
:102C5C0000000000FC02002064030020CC030020D4
:102C6C000000000000000000000000000000000058
:102C7C000000000000000000000000000000000048
:102C8C000000000000000000000000000000000038
:102C9C000000000000000000000000000000000028
:102CAC000000000000000000000000000000000018
:102CBC000000000000000000000000000000000008
:102CCC0000000000000000000000000000000000F8
:102CDC0000000000000000000000000000000000E8
:102CEC0000000000000000000000000000000000D8
:102CFC0000000000000000000100000000000000C7
:102D0C000E33CDAB34126DE6ECDE05000B0000008B
:102D1C0000000000000000000000000000000000A7
:102D2C000000000000000000000000000000000097
:102D3C000000000000000000000000000000000087
:102D4C000000000000000000000000000000000077
:0C307C00000000000000000054050020CF
:040000050800174593
:00000001FF
