:020000040800F2
:100000000000022099170008E9170008E917000806
:10001000E9170008E9170008E917000800000000C8
:10002000000000000000000000000000E9170008C8
:10003000E917000800000000E9170008BD030008E8
:10004000E9170008E9170008E9170008E917000890
:10005000E9170008E9170008E9170008E917000880
:10006000E9170008E9170008E9170008E917000870
:10007000E9170008E9170008E9170008E917000860
:10008000E1020008E9170008E9170008E91700086D
:10009000E9170008E9170008E9170008E917000840
:1000A000E9170008E9170008E9170008E917000830
:1000B00085020008E9170008E9170008E917000899
:1000C000E9170008E9170008E9170008E917000810
:1000D000E9170008E9170008E9170008E917000800
:1000E000E9170008E9170008E9170008E9170008F0
:1000F000E9170008E9170008E9170008E9170008E0
:10010000E9170008E9170008E9170008E9170008CF
:10011000E9170008E9170008E9170008E9170008BF
:10012000E9170008E9170008E9170008E9170008AF
:10013000E91700080000000000000000E9170008AF
:10014000E9170008E9170008E9170008E91700088F
:10015000E9170008E9170008E9170008E91700087F
:10016000E9170008E9170008E9170008E91700086F
:10017000E9170008E9170008E91700080000000067
:1001800000000000E9170008000000000000000067
:10019000E91700080000000000000000E91700084F
:1001A000000000000000000000000000E917000847
:1001B000E9170008E9170008E9170008E91700081F
:0401C000E917000833
:1001C80010B5054C237833B9044B13B10448AFF389
:1001D80000800123237010BD3C04002000000000B3
:1001E800442E000808B5034B1BB103490348AFF37D
:1001F800008008BD0000000040040020442E0008D4
:10020800A3F5803A704700BF174B002B08BF134B6C
:100218009D46FFF7F5FF00218B460F461348144A09
:10022800121A01F019FB0E4B002B00D098470D4B0A
:10023800002B00D098470020002104000D000D4835
:10024800002802D00C4801F0C9FB01F0E1FA2000B7
:10025800290001F019FA01F0CBFA00BF00000800EC
:100268000000000000000000000000003C04002026
:1002780070050020E5190008F11900084FF08043C7
:100288001A69D1070DD51A69124922F001021A61BB
:100298008A79022A0FD08A79032A14D08A79042A03
:1002A8000CD04FF080431A69920703D51A6922F0DF
:1002B80002021A61704701238B71F2E7382000228D
:1002C800D8628A71EDE740F6CA000422D8628A71C2
:1002D800E7E700BF58040020094B5A6812050ED5FD
:1002E800DA6808494FF0804042F4006210B4DA60DE
:1002F8000024022344638B715DF8044B70477047F8
:100308000060024058040020204B1A6842F00102A5
:100318001A601A689207FCD51D4A5A605A681B4928
:1003280022F480025A609A6842F414429A601A6869
:1003380042F080721A600B689801FCD50B6C154A64
:1003480043F080530B64136843F48033136053689D
:10035800D903FCD513680F4943F4003313604B6885
:100368009B03FCD50C4B094A40F205711960936850
:1003780023F003039360936843F002039360936848
:1003880003F00C03082BFAD1704700BF0038024075
:10039800082D000200700040003C02404FF0E023AE
:1003A800034900200722986159611A61704700BF0C
:1003B8001FBF0200044B1A6812B11A68013A1A608A
:1003C8005A6801325A60704740050020024A10609E
:1003D8001368002BFCD1704740050020014B58687A
:1003E800704700BF400500201C491D4A086B40F0BB
:1003F800010010B40863086C0124204308641168E4
:1004080041F400611160116A4FF0804341F480119A
:100418001162382160229C62D9629A61DA681149B6
:100428002243DA60DA6842F48072DA60DA6842F00D
:100438000202DA60DA6842F40072DA605A6842F05E
:1004480008025A601A6A22431A621A684FF08050EA
:1004580022431A605DF8044B086070470038024078
:100468000000024000E100E01A491B4B0A6B002023
:1004780042F400120A63C3F88800D3F88820D20730
:10048800FBD4D3F88820154942F0C062C3F888200D
:10049800D3F8882042F48062C3F88820D3F88820F3
:1004A80042F48042C3F88820D3F8882042F480526E
:1004B800C3F88820D3F8882042F04002C3F8882087
:1004C800D3F888204FF4803042F01002C3F8882017
:1004D80008607047003802400060024000E100E018
:1004E8002DE9F047054698B0AB7903F0FF08002BDB
:1004F800FAD1264F264BC7F890304FF0804A182380
:10050800C7F894D0C7F88C30CAF82480CAF8348069
:10051800DAF8003043F00103CAF80030AB887BB347
:100528002E6803EB430303EB06094FF0010E10247A
:10053800202096F800C07278B3784FEA0C2C4CEA69
:10054800024C4CEA030C6A4617230EFA03F111EA2F
:100558000C0F03F1FF3314BF10601460591C02F133
:100568000402F2D1D7F8883043F00103C7F8883085
:10057800CAF82480AB79022BFCD10336B145D8D117
:100588000323AB7118B0BDE8F08700BF00600240DC
:1005980034000040002360F3070361F30F2362F384
:1005A800174382B0184602B0704700BF2DE9F04FDC
:1005B800044685B00846154600F0BAFCB44B002244
:1005C80000F05AFE064628460F4600F0B1FCB04B34
:1005D800002200F051FE824620468B4600F0B8FC0F
:1005E800B4F5B47F00F02E81AA4B002200F044FE3F
:1005F80004460D4645EC104B01F066FA204653ECD4
:10060800102B294600F056FB3246804689463B4669
:10061800A149002000F04EFB52465B4600F002FD67
:100628004246CDE900014B463046394600F0FAFC17
:1006380002460B460020984900F03CFB52465B46B8
:1006480000F0F0FC42464B4680468946002092491D
:1006580000F030FB32463B4600F0E4FC02460B4615
:1006680000208D4900F026FB52465B4600F0DAFC7C
:10067800002206460F4600232046294600F058FF70
:1006880000285DD1844B00222046294600F050FF07
:1006980088B300224FF080432046294600F034FFFB
:1006A80048B379A3D3E900234046494600F0BAFC91
:1006B80000F052FF59460446504673A3D3E900237D
:1006C80000F0B0FC00F048FF0546DDE90001E4B2A7
:1006D8006DA3D3E9002300F0A5FC00F03DFFEDB2C7
:1006E800C3B2002064F3070065F30F2063F31740DB
:1006F80005B0BDE8F08F00224FF080432046294620
:1007080000F016FF88BB654B00222046294600F002
:100718000FFF002849D0624B00222046294600F0EE
:10072800F3FE002841D058A3D3E90023DDE90001F6
:1007380000F078FC00F010FF4946044640464EE0C1
:10074800554B00222046294600F0DEFE002899D0AD
:100758004DA3D3E900235046594600F063FC00F04E
:10076800FBFE394604463046A7E74C4B002220469C
:10077800294600F0C9FE0028C5D043A3D3E90023C9
:10078800DDE9000100F04EFC00F0E6FE3EA3D3E9EF
:10079800002304465946504600F044FC00F0DCFEB5
:1007A800E4B205463946304692E73D4B00222046E2
:1007B800294600F0BDFEF0B13A4B002220462946FA
:1007C80000F0A2FEB8B130A3D3E900233046394681
:1007D80000F028FC00F0C0FE0446DDE900012AA371
:1007E800D3E9002300F01EFC00F0B6FEE4B2054693
:1007F800594650466CE72B4B00222046294600F00C
:1008080097FE00283CD0284B20462946002200F0BD
:100818007BFEA8B31CA3D3E900235046594600F039
:1008280001FC00F099FE18A3D3E900230446DDE992
:10083800000100F0F7FB00F08FFEE4B205464946E0
:10084800404645E710A3D3E900235046594600F037
:10085800E9FB00F081FE32463B460F49C4B2002056
:1008680000F028FA52465B4600F0DCFB06A3D3E909
:10087800002300F0D7FB00F06FFEC5B22B4630E72F
:100888000346054604462CE70000000000E06F40E0
:100898000000594000004E400000F03F00000840B2
:1008A8000000104000001440000018404FF0000CF9
:1008B8000160828080F806C0704700BF818851B10E
:1008C800036801EB4101194400221A705A709A70AA
:1008D80003338B42F9D17047B43000080000002080
:1008E8003C0400203C04002070050020034AD2F894
:1008F800883043F47003C2F88830704700ED00E098
:10090800164A936803F00C03042B0CD0082B0CD068
:10091800134B124A134892681349C2F30312825CBC
:10092800D3400B607047114BF3E75368516813F4D9
:10093800800F01F03F01536814BF0C4A084AB2FB0C
:10094800F1F1064A5268C2F30142C3F38813013237
:1009580001FB03F35200B3FBF2F3DAE7003802407D
:100968000024F400842E00080400002040787D0153
:10097800704700BF0120704708B500F033FF162309
:1009880003604FF0FF3008BD08B500F02BFF1623B9
:100998000360FEE770B5161E07DD0C468D19AFF330
:1009A800008004F8010BA542F9D1304670BD00BFA4
:1009B80070B5161E07DD0C468D1914F8010BAFF340
:1009C8000080A542F9D1304670BD00BF4FF0FF301E
:1009D800704700BF4FF400534B600020704700BFC2
:1009E80001207047002070470EB44FF0FF3003B06D
:1009F800704700BF08B500F0F5FE0A2303604FF00A
:100A0800FF3008BD08B500F0EDFE022303604FF08B
:100A1800FF3008BD4FF0FF30704700BF4FF4005360
:100A28004B600020704700BF08B500F0DBFE1F23B5
:100A380003604FF0FF3008BD08B500F0D3FE0B236C
:100A480003604FF0FF3008BD08B500F0CBFE0C2363
:100A580003604FF0FF3008BD70B54FF0FF0C4CF449
:100A6800E06C1CEA11541DBF1CEA135594EA0C0FE4
:100A780095EA0C0F00F0DEF82C4481EA030621EA1F
:100A88004C5123EA4C5350EA013518BF52EA03355A
:100A980041F4801143F4801338D0A0FB02CE4FF00C
:100AA8000005E1FB02E506F00042E0FB03E54FF03C
:100AB8000006E1FB03569CF0000F18BF4EF0010E34
:100AC800A4F1FF04B6F5007F64F5407404D25FEA30
:100AD8004E0E6D4146EB060642EAC62141EA5551E3
:100AE8004FEAC52040EA5E504FEACE2EB4F1FD0C25
:100AF80088BFBCF5E06F1ED8BEF1004F08BF5FEAA3
:100B0800500E50F1000041EB045170BD06F0004654
:100B180046EA010140EA020081EA0301B4EB5C0401
:100B2800C2BFD4EB0C0541EA045170BD41F48011F9
:100B38004FF0000E013C00F3AB8014F1360FDEBF1E
:100B4800002001F0004170BDC4F10004203C35DAFA
:100B58000C341BDC04F11404C4F1200500FA05F37D
:100B680020FA04F001FA05F240EA020001F000421E
:100B780021F0004110EBD37021FA04F642EB060194
:100B88005EEA430E08BF20EAD37070BDC4F10C04BE
:100B9800C4F1200500FA04F320FA05F001FA04F282
:100BA80040EA020001F0004110EBD37041F100016E
:100BB8005EEA430E08BF20EAD37070BDC4F1200579
:100BC80000FA05F24EEA020E20FA04F301FA05F2E1
:100BD80043EA020321FA04F001F0004121FA04F289
:100BE80020EA020000EBD3705EEA430E08BF20EA59
:100BF800D37070BD94F0000F0FD101F00046400093
:100C080041EB010111F4801F08BF013CF7D041EA14
:100C1800060195F0000F18BF704703F00046520018
:100C280043EB030313F4801F08BF013DF7D043EAE9
:100C38000603704794EA0C0F0CEA135518BF95EA9F
:100C48000C0F0CD050EA410618BF52EA4306D1D126
:100C580081EA030101F000414FF0000070BD50EA45
:100C6800410606BF1046194652EA430619D094EACF
:100C78000C0F02D150EA013613D195EA0C0F05D1B9
:100C880052EA03361CBF104619460AD181EA03010D
:100C980001F0004141F0FE4141F470014FF00000C5
:100CA80070BD41F0FE4141F4780170BD81F0004112
:100CB80002E000BF83F0004330B54FEA41044FEA39
:100CC800430594EA050F08BF90EA020F1FBF54EAD4
:100CD800000C55EA020C7FEA645C7FEA655C00F070
:100CE800E2804FEA5454D4EB5555B8BF6D420CDD41
:100CF8002C4480EA020281EA030382EA000083EAC4
:100D0800010180EA020281EA0303362D88BF30BD63
:100D180011F0004F4FEA01314FF4801C4CEA1131B9
:100D280002D0404261EB410113F0004F4FEA033318
:100D38004CEA133302D0524263EB430394EA050FA3
:100D480000F0A780A4F10104D5F1200E0DDB02FA12
:100D58000EFC22FA05F2801841F1000103FA0EF2A6
:100D6800801843FA05F359410EE0A5F120050EF16C
:100D7800200E012A03FA0EFC28BF4CF0020C43FA9D
:100D880005F3C01851EBE37101F0004507D54FF0AA
:100D9800000EDCF1000C7EEB00006EEB0101B1F5FA
:100DA800801F1BD3B1F5001F0CD349085FEA300040
:100DB8004FEA3C0C04F101044FEA445212F5800F4B
:100DC80080F09A80BCF1004F08BF5FEA500C50F1E8
:100DD800000041EB045141EA050130BD5FEA4C0CCB
:100DE800404141EB0101013C28BFB1F5801FE9D228
:100DF80091F0000F04BF01460020B1FA81F308BF4B
:100E08002033A3F10B03B3F120020CDA0C3208DD16
:100E180002F1140CC2F10C0201FA0CF021FA02F1F1
:100E28000CE002F11402D8BFC2F1200C01FA02F161
:100E380020FA0CFCDCBF41EA0C019040E41AA2BF86
:100E480001EB0451294330BD6FEA04041F3C1CDA4E
:100E58000C340EDC04F11404C4F1200220FA04F06E
:100E680001FA02F340EA030021FA04F345EA030118
:100E780030BDC4F10C04C4F1200220FA02F001FADA
:100E880004F340EA0300294630BD21FA04F029465C
:100E980030BD94F0000F83F4801306BF81F48011F5
:100EA8000134013D4EE77FEA645C18BF7FEA655C68
:100EB80029D094EA050F08BF90EA020F05D054EA3A
:100EC800000C04BF1946104630BD91EA030F1EBF3F
:100ED8000021002030BD5FEA545C05D14000494143
:100EE80028BF41F0004130BD14F580043CBF01F536
:100EF800801130BD01F0004545F0FE4141F470011C
:100F08004FF0000030BD7FEA645C1ABF19461046F6
:100F18007FEA655C1CBF0B46024650EA013406BFF7
:100F280052EA033591EA030F41F4002130BD00BFB6
:100F380090F0000F04BF0021704730B54FF4806473
:100F480004F132044FF000054FF0000150E700BFF4
:100F580090F0000F04BF0021704730B54FF4806453
:100F680004F1320410F0004548BF40424FF0000140
:100F78003EE700BF42004FEAE2014FEA31014FEA83
:100F880002701FBF12F07F4393F07F4F81F06051D2
:100F9800704732F07F4208BF704793F07F4F04BF1D
:100FA80041F40021704730B54FF4607401F00045FA
:100FB80021F000411CE700BF50EA010208BF70475A
:100FC80030B54FF000050AE050EA010208BF70474B
:100FD80030B511F0004502D5404261EB41014FF4B4
:100FE800806404F132045FEA915C3FF4D8AE4FF0BC
:100FF80003025FEADC0C18BF03325FEADC0C18BF9F
:10100800033202EBDC02C2F1200300FA03FC20FAEF
:1010180002F001FA03FE40EA0E0021FA02F114443C
:10102800BDE600BF70B54FF0FF0C4CF4E06C1CEA55
:1010380011541DBF1CEA135594EA0C0F95EA0C0FC6
:1010480000F0DEF82C4481EA030621EA4C5123EA39
:101058004C5350EA013518BF52EA033541F4801168
:1010680043F4801338D0A0FB02CE4FF00005E1FB1B
:1010780002E506F00042E0FB03E54FF00006E1FB65
:1010880003569CF0000F18BF4EF0010EA4F1FF04A8
:10109800B6F5007F64F5407404D25FEA4E0E6D41E8
:1010A80046EB060642EAC62141EA55514FEAC520F9
:1010B80040EA5E504FEACE2EB4F1FD0C88BFBCF575
:1010C800E06F1ED8BEF1004F08BF5FEA500E50F126
:1010D800000041EB045170BD06F0004646EA0101EC
:1010E80040EA020081EA0301B4EB5C04C2BFD4EB1E
:1010F8000C0541EA045170BD41F480114FF0000E17
:10110800013C00F3AB8014F1360FDEBF002001F084
:10111800004170BDC4F10004203C35DA0C341BDCFE
:1011280004F11404C4F1200500FA05F320FA04F0D0
:1011380001FA05F240EA020001F0004221F0004104
:1011480010EBD37021FA04F642EB06015EEA430E77
:1011580008BF20EAD37070BDC4F10C04C4F12005A7
:1011680000FA04F320FA05F001FA04F240EA02005A
:1011780001F0004110EBD37041F100015EEA430E2B
:1011880008BF20EAD37070BDC4F1200500FA05F24B
:101198004EEA020E20FA04F301FA05F243EA0203CA
:1011A80021FA04F001F0004121FA04F220EA0200D9
:1011B80000EBD3705EEA430E08BF20EAD37070BD1F
:1011C80094F0000F0FD101F00046400041EB0101FF
:1011D80011F4801F08BF013CF7D041EA060195F0E1
:1011E800000F18BF704703F00046520043EB03039B
:1011F80013F4801F08BF013DF7D043EA0603704788
:1012080094EA0C0F0CEA135518BF95EA0C0F0CD092
:1012180050EA410618BF52EA4306D1D181EA0301D8
:1012280001F000414FF0000070BD50EA410606BFD2
:101238001046194652EA430619D094EA0C0F02D117
:1012480050EA013613D195EA0C0F05D152EA03365C
:101258001CBF104619460AD181EA030101F000417A
:1012680041F0FE4141F470014FF0000070BD41F0C3
:10127800FE4141F4780170BD70B54FF0FF0C4CF49D
:10128800E06C1CEA11541DBF1CEA135594EA0C0FBC
:1012980095EA0C0F00F0A7F8A4EB050481EA030E09
:1012A80052EA03354FEA013100F088804FEA0333F0
:1012B8004FF0805545EA131343EA12634FEA0222BE
:1012C80045EA111545EA10654FEA00260EF000417F
:1012D8009D4208BF964244F1FD0404F5407402D2D1
:1012E8005B084FEA3202B61A65EB03055B084FEA62
:1012F80032024FF480104FF4002CB6EB020E75EB5F
:10130800030E22BFB61A754640EA0C005B084FEA86
:101318003202B6EB020E75EB030E22BFB61A754603
:1013280040EA5C005B084FEA3202B6EB020E75EB4E
:10133800030E22BFB61A754640EA9C005B084FEAC6
:101348003202B6EB020E75EB030E22BFB61A7546D3
:1013580040EADC0055EA060E18D04FEA051545EAC2
:1013680016754FEA06164FEAC30343EA52734FEA6B
:10137800C2025FEA1C1CC0D111F4801F0BD141EAE4
:1013880000014FF000004FF0004CB6E711F4801F49
:1013980004BF01430020B4F1FD0C88BFBCF5E06F29
:1013A8003FF6AFAEB5EB030C04BFB6EB020C5FEA39
:1013B800500C50F1000041EB045170BD0EF0004E8E
:1013C8004EEA113114EB5C04C2BFD4EB0C0541EAC0
:1013D800045170BD41F480114FF0000E013C90E6BD
:1013E80045EA060E8DE60CEA135594EA0C0F08BF81
:1013F80095EA0C0F3FF43BAF94EA0C0F0AD150EA80
:1014080001347FF434AF95EA0C0F7FF425AF104612
:1014180019462CE795EA0C0F06D152EA03353FF43A
:10142800FDAE1046194622E750EA410618BF52EAB7
:1014380043067FF4C5AE50EA41047FF40DAF52EA8B
:1014480043057FF4EBAE12E74FF0FF3C06E000BF28
:101458004FF0010C02E000BF4FF0010C4DF804CD35
:101468004FEA410C7FEA6C5C4FEA430C18BF7FEAF5
:101478006C5C1BD001B050EA410C0CBF52EA430C23
:1014880091EA030F02BF90EA020F0020704710F1A3
:10149800000F91EA030F58BF994208BF90422CBF32
:1014A800D8176FEAE37040F0010070474FEA410C2B
:1014B8007FEA6C5C02D150EA013C07D14FEA430C49
:1014C8007FEA6C5CD6D152EA033CD3D05DF8040BBA
:1014D800704700BF8446104662468C4619466346EC
:1014E80000E000BF01B5FFF7B7FF002848BF10F1C3
:1014F800000F01BD4DF808EDFFF7F4FF0CBF012008
:1015080000205DF808FB00BF4DF808EDFFF7EAFF83
:1015180034BF012000205DF808FB00BF4DF808ED3E
:10152800FFF7E0FF94BF012000205DF808FB00BF33
:101538004DF808EDFFF7CEFF94BF012000205DF8BD
:1015480008FB00BF4DF808EDFFF7C4FF34BF0120CA
:1015580000205DF808FB00BF4A0011D212F5001206
:1015680011D20DD56FF47873B3EB62520ED44FEAF3
:10157800C12343F0004343EA505323FA02F0704773
:101588004FF00000704750EA013002D14FF0FF30B1
:1015980070474FF0000070474FEA4102B2F1E04354
:1015A80024BFB3F5001CDCF1FE5C0DD901F0004C42
:1015B8004FEAC0024CEA5070B2F1004F40EB830092
:1015C80008BF20F00100704711F0804F21D113F1BE
:1015D8003872BCBF01F00040704741F480114FEAF7
:1015E8005252C2F11802C2F1200C10FA0CF320FA80
:1015F80002F018BF40F001004FEAC1234FEAD3239D
:1016080003FA0CFC40EA0C0023FA02F34FEA430306
:10161800CCE77FEA625307D150EA01331EBF4FF08F
:10162800FE4040F44000704701F0004040F0FE40AA
:1016380040F40000704700BF4FEA410212F5001263
:1016480015D211D56FF47873B3EB625212D94FEA01
:10165800C12343F0004343EA505311F0004F23FAEB
:1016680002F018BF404270474FF00000704750EA40
:10167800013005D111F0004008BF6FF000407047FD
:101688004FF00000704700BF2DE9F04F2DED028BA1
:10169800DFF8F8A09FED3A8A83B06C46FEF734FE77
:1016A800FEF7A2FEFEF7E0FE0AF1080120464A22F4
:1016B800FFF7FCF894E803000FF2B409D9E90089B0
:1016C8008AE803004FF0000B5846FFF753FC4B46DF
:1016D8004246FFF7F1FAFFF75FFFBAF80430834696
:1016E800002B3ED0FFF746FC002604460D46374641
:1016F80001373846FFF72CFC1FA3D3E90023FFF777
:1017080091FC22462B46FFF7D7FA41EC100B00F06C
:101718005FFA1C4B51EC100B0022FFF7CDFA1A4B65
:101728000022FFF77FFCFFF737FF07EE900A67EE0E
:10173800887A0A22FDEEE77A642117EE900AFEF70E
:1017480035FFDAF80030BAF8042098553344C0F36E
:1017580007219742C0F30740597006F103069870B5
:10176800C6DB5046FEF7BCFEAEE700BFAFF3008015
:101778009A9999999999A93F9A9999999999B93F53
:101788000000B4430000F03F0000E03F5804002090
:10179800DFF834D00D480E490E4A002302E0D45831
:1017A800C4500433C4188C42F9D30B4A0B4C0023A1
:1017B80001E013600432A242FBD3FFF797F800F070
:1017C80027F8FFF761FF70470000022000000020A3
:1017D8003C040020B43000083C04002070050020C0
:1017E800FEE70000014B1868704700BF0C0000209E
:1017F80008B50021044600F08BF8044B1868C36B49
:1018080003B198472046FFF7BFF800BFC02E000875
:1018180070B50D4E0D4D761BB61006D0002455F848
:10182800043B01349847A642F9D1094E094D761B6D
:1018380001F006FBB61006D0002455F8043B01342D
:101848009847A642F9D170BDA8300008A830000812
:10185800B0300008A8300008830730B548D0541EBF
:10186800002A3FD0CAB2034601E0013C3AD303F84C
:10187800012B9D07F9D1032C2DD9CDB245EA0525B9
:101888000F2C45EA054536D9A4F1100222F00F0CB9
:1018980003F1200EE6444FEA121C03F1100242E95C
:1018A800045542E9025510327245F8D10CF1010293
:1018B80014F00C0F03EB021204F00F0C13D0ACF170
:1018C800040323F003030433134442F8045B9342F4
:1018D800FBD10CF003042CB1CAB21C4403F8012B51
:1018E8009C42FBD130BD64461346002CF4D1F9E785
:1018F80003461446BFE71A46A446E0E7024B13B175
:10190800024800F06BB8704700000000F1190008A9
:101918002DE9F84F2F4B2DED028B834618680F46A3
:1019280000F082F82C4BD3F80080D8F84861AEB1AB
:1019380008EE10BA4FF001094FF0000A7468651EEE
:101948000CD4013406EB840487B1D4F80031BB42CF
:101958000CD0013D6B1CA4F10404F5D1BDEC028B45
:101968001C4B1868BDE8F84F00F066B87368226829
:10197800013BAB420CBF7560C4F800A0002AE8D058
:10198800D6F88801D6F804B009FA05F101420BD15E
:10199800904772685A4513D1D8F84831B342D8D025
:1019A8001E46002ECAD1D9E7D6F88C0101420CD1C7
:1019B800D4F8801018EE100A904772685A45EBD098
:1019C800D8F84861002EB9D1C8E7D4F8800090470C
:1019D800DFE700BF38040020C02E000800230146BE
:1019E8001A46184600F02AB838B5084B084D5B1B54
:1019F8009C1007D0043B1D44013C55F80439984716
:101A0800002CF9D1BDE8384001F020BAB430000804
:101A1800B0300008704700BF704700BF704700BF74
:101A2800704700BF704700BF704700BF0120704774
:101A380001207047704700BF704700BF2DE9F0478D
:101A4800DFF880A00646DAF8000098460F4691466F
:101A5800FFF7EAFF1A4B1B68D3F8484124B36568BF
:101A68001F2D26DC5EB96B1C0235DAF800006360B6
:101A780044F82570FFF7E0FF0020BDE8F08704EB8D
:101A880085010123C1F88890D4F88821AB401A4316
:101A9800022EC4F88821C1F80881E4D1D4F88C2139
:101AA8001343C4F88C31DEE703F5A674C3F8484144
:101AB800D5E7DAF80000FFF7BFFF4FF0FF30DCE7AB
:101AC800C02E00083804002051EC100BF8B5C1F303
:101AD8000A53A3F2FF35132D10EE106A0C4630DCC2
:101AE800002D1EDB384F2F4101EA070303432DD099
:101AF80033A3D3E90023FFF7DFF800220023FFF721
:101B080021FD48B1002C04DA4FF4801343FA05F59F
:101B18002C4424EA070400262346324643EC102BC3
:101B2800F8BD27A3D3E90023FFF7C6F80022002356
:101B3800FFF708FD0028EFD0002C29DB00263446EB
:101B4800EAE7332D05DDB5F5806F19D041EC100BB0
:101B5800F8BDA3F213434FF0FF37DF400742F5D03B
:101B680017A3D3E90023FFF7A7F800220023FFF704
:101B7800E9FC0028D0D0002C13DB26EA0706CBE7C7
:101B880010EE102A0B46FFF797F841EC100BF8BD42
:101B980024F000430D4A1E43002E18BF14460026A9
:101BA800BAE7142D08D00123C5F1340503FA05F569
:101BB800AE1928BFE418E0E70134DEE7AFF3008090
:101BC8009C7500883CE4377EFFFF0F000000F0BFE3
:101BD80051EC100B204A21F00043934227DD00B559
:101BE8001E4A934285B009DD10EE102A0B46FFF716
:101BF80061F841EC100B05B05DF804FB684600F095
:101C08002FF800F0030001289DED021B9DED000B4D
:101C180012D0022817D090B100F04AFA53EC102BDA
:101C280003F1004300EE903A05B05DF804FB9FED28
:101C3800081B002000F0A8BF00F03AFADBE70120FB
:101C480000F0A2FFD7E7012000F09EFFE6E700BF03
:101C58000000000000000000FB21E93FFFFFEF7FCC
:101C68002DE9F04F53EC102B2DED048B904923F008
:101C780000458D428BB0044640F38C808D498D42DF
:101C88001F462BDC002F194610EE100A7EA3D3E95D
:101C9800002340F3B681FFF70DF8874B9D4280463D
:101CA800894600F08F807AA3D3E90023FFF702F872
:101CB80002460B46C4E9002340464946FEF7FAFFB0
:101CC80073A3D3E90023FEF7F5FFC4E90201012657
:101CD80030460BB0BDEC048BBDE8F08F77498D42E0
:101CE80040F3928076498D4261DC2E15A6F21646A5
:101CF80010EE100AA5EB065190468946FFF79CFCAA
:101D0800FFF726F902460B4640464946CDE904232B
:101D1800FEF7D0FF6B4B0022FFF784F98946804617
:101D2800FFF78AFC0546FFF713F902460B464046C3
:101D38004946CDE90623FEF7BDFF624B0022FFF7B7
:101D480071F902460B46CDE9082300220023FFF76C
:101D5800D1FB002800F05381002D0CBF0123022382
:101D6800594A0192022200922146324604A800F004
:101D7800DFFA002F0646ABDA6168226801F10043FA
:101D8800E168C4E90023A26801F10043C4E9022321
:101D980046429DE7002000210026C4E902013046A2
:101DA80084ED000B0BB0BDEC048BBDE8F08F10EE9A
:101DB800100A1946FEF77EFF0026C4E90201C4E9AD
:101DC800000185E734A3D3E90023FEF773FF34A3AA
:101DD800D3E9002380468946FEF76CFF02460B468E
:101DE800C4E9002340464946FEF764FF2CA3D3E923
:101DF8000023FEF75FFF0126C4E9020130460BB05D
:101E0800BDEC048BBDE8F08F00F07CFF59EC108B23
:101E180010EE100A24A3D3E900234946FFF702F97C
:101E28002A4B0022FEF748FFFFF706FC0646FFF79D
:101E38008FF802460B4643EC182B13A3D3E9002373
:101E4800B0EE489AF0EE689AFFF7ECF802460B46B7
:101E580040464946FEF72EFF0DA3D3E900238246EC
:101E68008B4651EC180BFFF7DDF81F2E41EC180BD1
:101E780030DC174B721E53F82230AB422AD0024690
:101E88000B469BE0AFF3008000004054FB21F93F74
:101E98003163621A61B4D03D0000601A61B4D03D6C
:101EA8007370032E8A19A33B83C8C96D305FE43F62
:101EB800FB21E93F7BD90240FB21F93FFB21394156
:101EC800FFFFEF7F00007041442F00080000E03F53
:101ED800C42E00082B150393504653EC182B594673
:101EE800FEF7E8FEC1F30A53C3EB1555102D8046E3
:101EF800894669DD64A3D3E9002351EC190BFFF788
:101F080091F88046894642464B4650465946FEF768
:101F1800D1FE02460B465046594692469B46FEF76E
:101F2800C9FE42464B46FEF7C5FE59A3D3E9002336
:101F38008046894651EC190BFFF774F842464B4628
:101F4800FEF7B8FE02460B465046594643EC182B9E
:101F5800FEF7B0FE039AC1F30A53D31A312B804619
:101F6800894631DD4DA3D3E9002351EC190BFFF766
:101F780059F88046894642464B4650465946FEF730
:101F880099FE02460B465046594692469B46FEF736
:101F980091FE42464B46FEF78DFE42A3D3E900234D
:101FA8008046894651EC190BFFF73CF842464B46F0
:101FB800FEF780FE02460B4643EC182B5046594666
:101FC800FEF778FE8046894642464B46C4E90089BA
:101FD80050465946FEF76EFE53EC182BFEF76AFE84
:101FE800002FC4E90201BFF673AE09F10043C4E94A
:101FF800008301F10043C4E90203764268E6032343
:10200800AEE6FEF759FE244B9D428046894616D01F
:102018001BA3D3E90023FEF74FFE02460B46C4E993
:10202800002340464946FEF745FE15A3D3E90023A1
:10203800FEF742FE4FF0FF36C4E9020148E612A35C
:10204800D3E90023FEF738FE11A3D3E90023804625
:102058008946FEF731FE02460B46C4E90023404696
:102068004946FEF727FE0AA3D3E90023FEF724FE1C
:102078004FF0FF36C4E902012AE600BFAFF3008043
:102088003163621A61B4D03D0000601A61B4D03D7A
:102098007370032E8A19A33BFB21F93F0000002E21
:1020A8008A19A33BC14920259A837B390000000087
:1020B8002DE9F84F57EC106B27F00049B9F1795F1B
:1020C8002DED048B5BEC11AB71DA10EE100A39467A
:1020D800FFF7B2FA002800F0F68032463B46304659
:1020E8003946FEF79FFF7CA3D3E9002304460D463B
:1020F800FEF798FF7AA3D3E90023FEF7DDFD224619
:102108002B46FEF78FFF78A3D3E90023FEF7D2FD15
:1021180022462B46FEF786FF75A3D3E90023FEF778
:10212800CBFD22462B46FEF77DFF73A3D3E90023A0
:10213800FEF7C0FD22462B46FEF774FF70A3D3E9D5
:102148000023FEF7B9FD22462B46FEF76BFF41EC54
:10215800180B714B002220462946FEF763FF53EC0B
:10216800182B8046894620462946FEF75BFF5246D3
:102178005B4604460D4630463946FEF753FF024695
:102188000B4620462946FEF795FD02460B4640467B
:102198004946FEF78FFD02460B4600205F49FEF7D1
:1021A80089FDBDEC048B41EC100BBDE8F88F10EEF7
:1021B800102A10EE100A3B463946FEF733FF46A3B5
:1021C800D3E9002304460D46FEF72CFF44A3D3E9C8
:1021D8000023FEF771FD22462B46FEF723FF42A39C
:1021E800D3E90023FEF766FD22462B46FEF71AFFC9
:1021F8003FA3D3E90023FEF75FFD22462B46FEF7F7
:1022080011FF3DA3D3E90023FEF754FD22462B46D8
:10221800FEF708FF3AA3D3E90023FEF74DFD2B464E
:102228002246FEF7FFFE3E4B994541EC180B90DD28
:102238003C4B99453CDC0022A9F5001337490020A6
:1022480090469946FEF736FD41EC190B324B0022B9
:1022580020462946FEF7E6FE42464B46FEF72AFD93
:1022680053EC182B8046894620462946FEF7DAFEAD
:1022780052465B4604460D4630463946FEF7D2FEC6
:1022880002460B4620462946FEF714FD02460B4639
:1022980040464946FEF70EFD02460B4651EC190B27
:1022A800FEF708FDBDEC048B41EC100BBDE8F88F80
:1022B8009FED157BDFF87090B0EE479AF0EE679AC5
:1022C8004FF00008C2E7BDEC048B9FED110BBDE891
:1022D800F88F00BFAFF30080D43888BEE9FAA8BDF4
:1022E800C4B1B4BD9EEE213EAD529C804F7E923E5D
:1022F8009015CB19A001FA3E7751C1166CC1563F13
:102308004C5555555555A53F000000000000E73FC6
:10231800000000000000F03F0000E03F0000F03F38
:102328003233D33F0000E93F0000D23F00000000F5
:102338002DE9F04FADF5197D1C4608930B91BB4B69
:10234800A299049053F821100591631E12F1140FFD
:102358000393C0F24B83B649D31E81FB0301DB17FD
:10236800C3EBA10307930133A3EB8303DB00D3186B
:102378000693079A039BD41A059AD6181AD40136DD
:10238800A39F264420AD4FF000084FF0000908E055
:1023980057F82400FEF7DCFD0134B442E5E80201F9
:1023A80008D0002CF4DA013440464946B442E5E846
:1023B8000201F6D1059B002BC0F2C883089BDDF80B
:1023C8000C90DA000292059A1A440192049A20A904
:1023D80001EBC30A0DF5E07B02EBC308039B002B5E
:1023E800C0F2A981049E57460024002577E90223FC
:1023F800F6E80201FEF716FE02460B46204629467D
:10240800FEF75AFC464504460D46EFD1019B09F1FB
:1024180001099945EBE802450AF1080ADED1049A58
:10242800029B13449B46059B0BA901EB83020CA955
:102438000A921A4601EB8303083B09930192019A19
:1024480098A901EBC203002A53E9284529DD0DF5B7
:10245800E07A0AEBC2080DF13009764B00222046DB
:102468002946FEF7DFFDFFF7E7F8FEF771FD724B2F
:10247800002206460F46FEF7D5FD02460B462046CB
:102488002946FEF717FCFFF7D7F878E9022349F841
:10249800040B39463046FEF70FFCD04504460D467E
:1024A800DBD1DDF8189045EC104B484600F034FCC1
:1024B80055EC104B00224FF07F5310EE100A2946BE
:1024C800FEF7B0FD41EC100BFFF7FEFA5B4B51EC49
:1024D800100B0022FEF7A6FD02460B4620462946B1
:1024E800FEF7E8FB0D460446FFF7A6F88046FEF720
:1024F8002FFD0B46024629462046FEF7DBFB4B46DE
:10250800002B06460F4640F39B80019A511E0CAAE9
:10251800C9F1180352F8212042FA03F000FA03F334
:10252800D31AC9F117050CAA43FA05F5002D42F88C
:102538002130804400F38E80002200233046394643
:10254800FEF7D8FF002800F05882019B059A03F196
:10255800FF3A524510DC03F180430CAA013B0A986C
:1025680002EB8303002253F80419834242EA010272
:10257800F9D1002A40F0E280059B0CAA013B52F8F1
:102588002330002B40F0D280099A012352F8041915
:1025980001330029FAD0019AD3180293531C9946A3
:1025A800019A08990A449046079A02EB030A0AF12D
:1025B800804AA39A0AF1FF3A02EB8A0A20AA02EBA0
:1025C800C80870AA02EBC30301935AF8040FFEF778
:1025D800BFFC0B46039902460029C8E90023474679
:1025E80008F108081EDB049E0024002501E077E9B5
:1025F8000223F6E80201FEF715FD02460B462046C7
:102608002946FEF759FB5E4504460D46EFD1019B6E
:10261800E3E802450193029B09F101099945D4DDDC
:1026280001930CE700240025F1E700BF9030000873
:10263800ABAAAA2A0000703E0000704100002040AA
:102648006BD1019B0CAA013B52F82350ED15002DCC
:102658007FF772AF019B002B08F1010840F3CB8193
:102668000C9C002C51D1019B012B20D00CAB0122DA
:1026780053F8044F002C4BD0531C0CA9C4F18074A0
:1026880041F822400199994210DD0CAA0CA852F891
:10269800232000EB830300EB81006FF07F4100E013
:1026A8001A688A1A43F8042B8342F9D10124069B3D
:1026B800002B0EDD012B00F06C81022B09D1019B50
:1026C8005A1E0CAB0CA953F82230C3F3150341F87A
:1026D8002230022D7FF430AF32463B46B649002007
:1026E800FEF7E8FA06460F46002C3FF425AF069899
:1026F8009FEDAD0B00F010FB3046394653EC102B24
:10270800FEF7D8FA06460F4616E701230022B4E77B
:10271800019901328A42ABD1C9E7A84B0022FEF7E2
:1027280007FF002840F05081054605E7019B01336B
:102738009946029334E70024002567E6069B039533
:10274800A3F118020CABCDF81C8053F82A3006927E
:1027580073B9019B03F18043023B0CA901EB83038E
:1027680053F804190AF1FF3A183A0029F8D00692EA
:102778009FED8D0B069800F0CFFABAF1000F55ECDB
:10278800104BC0F2D98170AB03EBCA0B0CAA0AF14B
:102798000103069302EB8306DFF824924FEACA038B
:1027A80004930BF108074FF0000856F8040DFEF7E4
:1027B800CFFB22462B46FEF735FC4B4667E9020164
:1027C800424620462946FEF72DFC0CAB9E420446A5
:1027D8000D46EAD148ABCDE9013ADDF814A0BAF1CB
:1027E800000F4FF000092CDB71A3D3E90023DFF8B9
:1027F800D4815F4600260024002503E0B14510DBA4
:10280800F8E80223F7E80201FEF70CFC02460B4643
:1028180020462946FEF750FA0136B24504460D46D1
:10282800ECDA019B029A03EBC9034A45C3E9004568
:10283800ABF1080B09F1010306D0BAF1000F994674
:10284800D2DA00240025ECE7A29BDDF808A0022BD1
:102858001EDC002B00F3078113D1049C019D083472
:102868002C440020002174E90223FEF725FAA54232
:10287800F9D1039B13B101F1004319460B9BC3E93E
:102888000001079B03F007000DF5197DBDE8F08FE7
:10289800A29B032BF5D1BAF1000F00F06981019AD0
:1028A800049BD318D3E9004502EBCA0B7BE9026706
:1028B8002046294632463B46FEF7FEF9A046A94681
:1028C80004460D4622462B4630463946FEF7F2F9B5
:1028D8004B464246FEF7F0F9019B5B45CBE9020106
:1028E800CBE90045E2D1BAF1010F40F34181019AE9
:1028F800049B0AF1005A0AF1FF3A13444FEACA014D
:10290800D3E9004501F1080A029192440DF5947B40
:102918007AE902672046294632463B46FEF7CCF95B
:10292800A046A94604460D4622462B46304639465F
:10293800FEF7C0F942464B46FEF7BEF9D345CAE951
:102948000201CAE90045E3D1029C019B10341C44F2
:1029580003F110050020002174E90223FEF7ACF909
:10296800A542F9D1039B002B40F0BB80019D0B9C35
:10297800D5E90023C4E90023D5E90223C4E90223E9
:10298800079BC4E9040103F007000DF5197DBDE8B4
:10299800F08F019B5A1E0CAB0CA953F82230C3F3DD
:1029A800160341F8223094E6000000000000F03FD2
:1029B80000000040FB21F93F0000F03F0000E03F2D
:1029C8000000703E58300008019B002B08F10108F8
:1029D800C8BF02253FF744AE32463B466649002051
:1029E800FEF768F9022506460F46A5E500216FF0B7
:1029F80017030791BBE4002459E647EC106B069EC9
:102A080003957042CDF81C8000F086F955EC104B08
:102A18005A4B10EE100A00222946FEF789FD0028BD
:102A280055D0574B019F0022183620462946069656
:102A3800FEF7F8FAFEF700FE0646FEF789FA4F4B56
:102A48000022FEF7EFFA0B46024629462046FEF71B
:102A580031F9FEF7F1FD07F1010A0CAB43F8270045
:102A680043F82A6084E6019D069A002005EBC2041B
:102A7800002174E90223FEF71FF9A542F9D1039B4F
:102A8800002B49D10B9BC3E900010B460199024673
:102A9800D1E90001FEF70EF9BAF1000F0DDD4AADDC
:102AA8000124F5E802230134FEF706F9A245F8DA15
:102AB800039B13B101F1004319460B9BC3E90201C3
:102AC800079B03F007000DF5197DBDE8F08F204640
:102AD8002946FEF7B1FD019B0CAA9A4642F823004D
:102AE80046E6019B1E465C68DD6801F100430B99D0
:102AF8000246C1E90423326804F10043C1E9002316
:102B0800B26805F10043C1E90223079B03F00700FF
:102B18000DF5197DBDE8F08F0B9A01F10043536064
:102B28000B46019910600246D1E90001FEF7C2F890
:102B3800BAF1000FB3DCBDE7A29B022B0ADC002B25
:102B480011DC7FF49EAE0020002192E6089BDB009A
:102B5800029364E4A29B032B7FF493AE48AB00205E
:102B680000210193FEE648AB00200021019386E78F
:102B780000200021F6E600BF0000F03F0000704191
:102B88000000703E000000002DE9F04F55EC104B9E
:102B980085B025F00043B3F1795F8DED001B0390FC
:102BA80007DA10EE100A2946FEF746FD002800F065
:102BB800898022462B4620462946FEF733FA0646E8
:102BC8000F4632463B4620462946FEF72BFA43A3DA
:102BD800D3E9002382468B4630463946FEF722FA6F
:102BE80040A3D3E90023FEF765F832463B46FEF7DB
:102BF80019FA3EA3D3E90023FEF75EF832463B46B6
:102C0800FEF710FA3BA3D3E90023FEF753F8324648
:102C18003B46FEF707FA39A3D3E90023FEF74CF841
:102C2800039B80468946ABB3DDE900012A4B0022AD
:102C3800FEF7F8F942464B468046894650465946C3
:102C4800FEF7F0F902460B4640464946FEF732F8D1
:102C580032463B46FEF7E6F9DDE90023FEF72AF89F
:102C68001BA3D3E9002306460F4650465946FEF7F4
:102C7800D9F902460B4630463946FEF71DF802469A
:102C88000B4620462946FEF715F841EC100B05B017
:102C9800BDE8F08F02460B4630463946FEF7C2F9CA
:102CA8000BA3D3E90023FEF705F852465B46FEF76F
:102CB800B9F922462B46FDF7FFFF41EC100B05B092
:102CC800BDE8F08F45EC104B05B0BDE8F08F00BFB4
:102CD800495555555555C53F0000E03F7CD5CF5A5D
:102CE8003AD9E53DEB9C2B8AE6E55A3E7DFEB15785
:102CF800E31DC73ED561C119A0012A3FA6F81011EE
:102D08001111813F51EC100B10EE102A21F00043F5
:102D180043EC102B704700BF38B553EC102BC3F3AE
:102D28000A5104469C4689BB10EE101A23F0004C49
:102D38005CEA010129D0194600223D4B3D4D10EEB9
:102D4800100AFEF76FF9AC4202460B4616DB8C46BA
:102D5800C1F30A513639214440F2FE70814221DC28
:102D6800002947DC11F1350F34DA4CF250318C422E
:102D780018DC002B26A1D1E9000144DB24A3D3E908
:102D88000023FEF74FF941EC100B38BD40F2FF70FD
:102D98008142E0D110EE100A1946FDF78DFF41EC93
:102DA800100B38BD002B1CA1D1E9000107DB1AA3C9
:102DB800D3E90023FEF736F941EC100B38BD18A112
:102DC800D1E9000114A3D3E90023FEF72BF941EC64
:102DD800100BF3E72CF0FF4C2CF4E00C36314CEAE6
:102DE8000153104619460022134BFEF71BF941EC1C
:102DF800100B38BD2CF0FF4C2CF4E00C4CEA0153BE
:102E080043EC102B38BD08A1D1E90001B6E700BF9B
:102E180059F3F8C21F6EA5019C7500883CE4377E03
:102E28009C7500883CE437FE59F3F8C21F6EA581F3
:102E380000005043B03CFFFF0000903C0000000041
:102E4800F8B500BFF8BC08BC9E467047F8B500BF8F
:082E5800F8BC08BC9E4670475F
:102E60003A3D0A3D0F3D243D323D023D053D133DB7
:102E70000D3D0C3D233D113D263D013D173D083DD7
:102E8000093D0000000000000000000001020304F2
:102E90000607080900000000010203043A3D0A3D4C
:102EA0000F3D243D323D023D053D133D0D3D0C3DA2
:102EB000233D113D263D013D173D083D093D0000E4
:102EC00010000020FB21F93FFB2109407CD9124072
:102ED000FB2119407A6A1F407CD92240BBFD254066
:102EE000FB2129403A462C407A6A2F405C4731400A
:102EF0007CD932409C6B3440BBFD3540DB8F374082
:102F0000FB2139401BB43A403A463C405AD83D4038
:102F10007A6A3F404C7E40405C4741406C104240E2
:102F20007CD942408CA243409C6B4440AC34454029
:102F3000BBFD4540CBC64640DB8F4740EB58484081
:102F4000FB21494083F9A200444E6E00FC29150084
:102F5000D1572700DD34F50062DBC0003C999500B5
:102F6000419043006351FE00BBDEAB00B761C5007A
:102F70003A6E2400D24D42004906E00009EA2E00D4
:102F80001C92D100EB1DFE0029B11C00E83EA700F9
:102F9000F535820044BB2E009CE98400B426700005
:102FA000417E5F00D6913900538339009CF439008B
:102FB0008B5F840028F9BD00F81F3B00DEFF9700FF
:102FC0000F980500112FEF000A5A8B006D1F6D003E
:102FD000CF7E360009CB2700464FB7009E663F00E4
:102FE0002DEA5F00BA277500E5EBC7003D7BF100D5
:102FF000F739070092528A00FB6BEA001FB15F00AD
:10300000085D8D00300356007BFC4600F0AB6B0082
:1030100020BCCF0036F49A00E3A91D005E61910048
:10302000081BE60085996500A0145F008D406800CC
:1030300080D8FF0027734D0006063100CA561500E0
:10304000C9A873007BE260006B8CC0000000000028
:1030500000000040FB21F93F000000002D44743EB9
:10306000000000809846F83C0000006051CC783B9E
:1030700000000080831BF0390000004020257A38D2
:10308000000000802282E336000000001DF3693555
:103090000200000003000000040000000600000021
:0830A00068D1FF7F0100000070
:0830A80005190008ED01000804
:0430B000C90100084A
:1030B400000000000024F400480500201000002057
:1030C40000000000FC02002064030020CC03002068
:1030D40000000000000000000000000000000000EC
:1030E40000000000000000000000000000000000DC
:1030F40000000000000000000000000000000000CC
:1031040000000000000000000000000000000000BB
:1031140000000000000000000000000000000000AB
:10312400000000000000000000000000000000009B
:10313400000000000000000000000000000000008B
:10314400000000000000000000000000000000007B
:10315400000000000000000000000000000000006B
:10316400000000000000000001000000000000005A
:103174000E33CDAB34126DE6ECDE05000B0000001F
:10318400000000000000000000000000000000003B
:10319400000000000000000000000000000000002B
:1031A400000000000000000000000000000000001B
:1031B400000000000000000000000000000000000B
:0C34E40000000000000000005405002063
:04000005080017993F
:00000001FF
