:020000040800F2
:10000000000002208D080008DD080008DD08000857
:10001000DD080008DD080008DD0800080000000019
:10002000000000000000000000000000DD080008E3
:10003000DD08000800000000DD0800082D030008AE
:10004000DD080008DD080008DD080008DD080008FC
:10005000DD080008DD080008DD080008DD080008EC
:10006000DD080008DD080008DD080008DD080008DC
:10007000DD080008DD080008DD080008DD080008CC
:100080005D060008DD080008DD080008DD0800083E
:10009000DD080008DD080008DD080008DD080008AC
:1000A000DD080008DD080008DD080008DD0800089C
:1000B00025060008DD080008DD080008DD08000846
:1000C000DD080008DD080008DD080008DD0800087C
:1000D000DD080008DD080008DD080008DD0800086C
:1000E000DD080008DD080008DD080008DD0800085C
:1000F000DD080008DD080008DD080008DD0800084C
:10010000DD080008DD080008DD080008DD0800083B
:10011000DD080008DD080008DD080008DD0800082B
:10012000DD080008DD080008DD080008DD0800081B
:10013000DD0800080000000000000000DD080008E5
:10014000DD080008DD080008DD080008DD080008FB
:10015000DD080008DD080008DD080008DD080008EB
:10016000DD080008DD080008DD080008DD080008DB
:10017000DD080008DD080008DD08000800000000B8
:1001800000000000DD080008000000000000000082
:10019000DD0800080000000000000000DD08000885
:1001A000000000000000000000000000DD08000862
:1001B000DD080008DD080008DD080008DD0800088B
:0401C000DD0800084E
:1001C40010B5054C237833B9044B13B10448AFF38D
:1001D40000800123237010BD3C04002000000000B7
:1001E400C40B000808B5034B1BB103490348AFF324
:1001F400008008BD0000000040040020C40B00087B
:10020400A3F5803A704700BF174B002B08BF134B70
:100214009D46FFF7F5FF00218B460F461348144A0D
:10022400121A00F095FB0E4B002B00D098470D4B93
:10023400002B00D098470020002104000D000D4839
:10024400002802D00C4800F045FC00F05DFB2000C3
:10025400290000F0D9FA00F047FB00BF00000800B5
:100264000000000000000000000000003C0400202A
:100274008C040020D90A0008E50A0008204B1A68FB
:1002840042F001021A601A689207FCD51D4A5A60AE
:100294005A681B4922F480025A609A6842F4144254
:1002A4009A601A6842F080721A600B689801FCD553
:1002B4000B6C154A43F080530B64136843F480338A
:1002C40013605368D903FCD513680F4943F4003312
:1002D40013604B689B03FCD50C4B094A40F2057133
:1002E4001960936823F003039360936843F0020357
:1002F4009360936803F00C03082BFAD1704700BF96
:1003040000380240082D000200700040003C02400A
:100314004FF0E023034900200722986159611A61D4
:10032400704700BF1FBF0200044B1A6812B11A685D
:10033400013A1A605A6801325A6070475804002022
:10034400024A10601368002BFCD170475804002047
:10035400014B5868704700BF580400200F4B104AE7
:10036400186B104940F0010010B41863106840F095
:1003740080001060106A40F4E04010621A6C40F291
:10038400871442F400321A648C60CB685DF8044B25
:1003940043F4005343F00403CB6070470038024039
:1003A4000000024000440040044A0549D36840204C
:1003B40043F02003D3604860704700BF004400400E
:1003C40000E100E0034A13689B06FCD55068C0B204
:1003D400704700BF004400400F4B104A186B10498F
:1003E40040F0010010B41863106840F02000106061
:1003F400106A40F4E06010621A6C40F2871442F410
:1004040000321A648C60CB685DF8044B43F40053EB
:1004140043F00803CB6070470038024000000240FC
:1004240000440040024A13681B06FCD55060704724
:10043400004400401D491E4A086B40F0010010B4FE
:100444000863086C012420430864116841F40061C6
:100454001160116A4FF0804341F480111162382019
:10046400602100229C62D86299615A63DA6811495A
:100474002243DA60DA6842F00202DA60DA6842F4AF
:100484000072DA60DA6842F48072DA605A6842F024
:1004940008025A601A6A22431A621A684FF080509E
:1004A40022431A605DF8044B08607047003802402C
:1004B4000000024000E100E01A491B4B0A6B0020D7
:1004C40042F400120A63C3F88800D3F88820D207E4
:1004D400FBD4D3F88820154942F0C062C3F88820C1
:1004E400D3F8882042F48062C3F88820D3F88820A7
:1004F40042F48042C3F88820D3F8882042F4805222
:10050400C3F88820D3F8882042F04002C3F888203A
:10051400D3F888204FF4803042F01002C3F88820CA
:1005240008607047003802400060024000E100E0CB
:10053400C0E90012836070472DE9F047DFF8D4C0AA
:10054400DFF8D4E0DFF8D4909AB0054600F16007F4
:100554000DF10808012110242020DCF8883013F064
:100564000103FAD12A686E68120242EA0642AE68B2
:1005740032430192019EC3F1170201FA02F23242A0
:1005840008BF1AAA0DF1680A08BF02EB83020AEB3E
:10059400830A03F1010314BF4AF8600C42F8604C6B
:1005A400182BE7D1CCF88C30CCF89090CCF8948010
:1005B400DCF8883043F00103CCF88830DEF80030F2
:1005C400002BFBD00C35AF42C7D1DEF80030002B36
:1005D400FBD04FF080440320FFF7B2FE236A23F0E0
:1005E40001032362236823F0010323600220FFF741
:1005F400A7FE236A43F0010323622368002243F029
:1006040001032360022062626263FFF799FE1AB05D
:10061400BDE8F08700600240600400203400004020
:100624004FF080431A6912F0010F1A6909D022F0C1
:10063400010208491A610A682AB100225A630A6051
:100644007047920700D470471A6922F002021A61B7
:10065400704700BF60040020054B5A68120506D598
:10066400DA68044942F400620120DA6008607047E5
:10067400006002406004002010B50446C0B2FFF7D9
:10068400D1FE204610BD00BF580C00080000002019
:100694003C0400203C0400208C040020034AD2F8CF
:1006A400883043F47003C2F88830704700ED00E0EE
:1006B400164A936803F00C03042B0CD0082B0CD0BF
:1006C400134B124A134892681349C2F30312825C13
:1006D400D3400B607047114BF3E75368516813F430
:1006E400800F01F03F01536814BF0C4A084AB2FB63
:1006F400F1F1064A5268C2F30142C3F3881301328E
:1007040001FB03F35200B3FBF2F3DAE700380240D3
:100714000024F400040C00080400002040787D014B
:10072400704700BF0120704708B500F0D7F81623C2
:1007340003604FF0FF3008BD08B500F0CFF8162372
:100744000360FEE770B5161E07DD0C468D19AFF386
:10075400008004F8010BA542F9D1304670BD00BFFA
:1007640070B5161E07DD0C468D1914F8010BFFF742
:1007740083FFA542F9D1304670BD00BF4FF0FF3072
:10078400704700BF4FF400534B600020704700BF18
:1007940001207047002070470EB44FF0FF3003B0C3
:1007A400704700BF08B500F099F80A2303604FF0C2
:1007B400FF3008BD08B500F091F8022303604FF044
:1007C400FF3008BD4FF0FF30704700BF4FF40053B7
:1007D4004B600020704700BF08B500F07FF81F236E
:1007E40003604FF0FF3008BD08B500F077F80B2325
:1007F40003604FF0FF3008BD08B500F06FF80C231C
:1008040003604FF0FF3008BD2DE9F0479CB0FFF7BF
:1008140035FDFFF77DFDFFF70DFEFFF74DFEDFF819
:10082400649000244FF00A0A6F464FF06408FFF703
:100834008FFD031B0A2B0646F9DD002505EB450455
:100844001CAB03EB84045246514638465346FFF72B
:100854006FFE97E807000135603C082D84E8070027
:10086400ECD1294604A8FFF767FE0AF1010389FBCE
:1008740003124FEAE37ACAEB621A08FB1A3A3446C7
:10088400D5E700BF1F85EB51DFF834D00D480E4982
:100894000E4A002302E0D458C4500433C4188C42D6
:1008A400F9D30B4A0B4C002301E013600432A2423B
:1008B400FBD3FFF7F3FE00F027F8FFF7A5FF70471F
:1008C40000000220000000203C040020580C000816
:1008D4003C0400208C040020FEE70000014B186853
:1008E400704700BF0C00002008B50021044600F04A
:1008F4008BF8044B1868C36B03B198472046FFF785
:100904001BFF00BF400C000870B50D4E0D4D761B4B
:10091400B61006D0002455F8043B01349847A6428B
:10092400F9D1094E094D761B00F04CF9B61006D0EA
:10093400002455F8043B01349847A642F9D170BD10
:100944004C0C00084C0C0008540C00084C0C00081B
:10095400830730B548D0541E002A3FD0CAB203469C
:1009640001E0013C3AD303F8012B9D07F9D1032C94
:100974002DD9CDB245EA05250F2C45EA054536D9D2
:10098400A4F1100222F00F0C03F1200EE6444FEA0A
:10099400121C03F1100242E9045542E902551032D7
:1009A4007245F8D10CF1010214F00C0F03EB0212A2
:1009B40004F00F0C13D0ACF1040323F0030304334D
:1009C400134442F8045B9342FBD10CF003042CB1B2
:1009D400CAB21C4403F8012B9C42FBD130BD6446CF
:1009E4001346002CF4D1F9E703461446BFE71A4630
:1009F400A446E0E7024B13B1024800F06BB870471D
:100A040000000000E50A00082DE9F84F2F4B2DEDFA
:100A1400028B834618680F4600F082F82C4BD3F8FB
:100A24000080D8F84861AEB108EE10BA4FF0010961
:100A34004FF0000A7468651E0CD4013406EB84047C
:100A440087B1D4F80031BB420CD0013D6B1CA4F13A
:100A54000404F5D1BDEC028B1C4B1868BDE8F84FBB
:100A640000F066B873682268013BAB420CBF756046
:100A7400C4F800A0002AE8D0D6F88801D6F804B05B
:100A840009FA05F101420BD1904772685A4513D116
:100A9400D8F84831B342D8D01E46002ECAD1D9E77F
:100AA400D6F88C0101420CD1D4F8801018EE100A4B
:100AB400904772685A45EBD0D8F84861002EB9D1F6
:100AC400C8E7D4F880009047DFE700BF380400206F
:100AD400400C0008002301461A46184600F02AB8C4
:100AE40038B5084B084D5B1B9C1007D0043B1D44D4
:100AF400013C55F804399847002CF9D1BDE8384039
:100B040000F066B8580C0008540C0008704700BF89
:100B1400704700BF704700BF704700BF704700BFF9
:100B2400704700BF0120704701207047704700BF25
:100B3400704700BF2DE9F047DFF880A00646DAF8D9
:100B4400000098460F469146FFF7EAFF1A4B1B68D0
:100B5400D3F8484124B365681F2D26DC5EB96B1CAD
:100B64000235DAF80000636044F82570FFF7E0FF0F
:100B74000020BDE8F08704EB85010123C1F88890CB
:100B8400D4F88821AB401A43022EC4F88821C1F856
:100B94000881E4D1D4F88C211343C4F88C31DEE706
:100BA40003F5A674C3F84841D5E7DAF80000FFF767
:100BB400BFFF4FF0FF30DCE7400C00083804002092
:100BC40000000000F8B500BFF8BC08BC9E467047A2
:0C0BD400F8B500BFF8BC08BC9E46704796
:100BE0003A3D0A3D0F3D243D323D023D053D133D5A
:100BF0000D3D0C3D233D113D263D013D173D083D7A
:100C0000093D000000000000000000000102030494
:100C10000607080900000000010203043A3D0A3DEE
:100C20000F3D243D323D023D053D133D0D3D0C3D44
:100C3000233D113D263D013D173D083D093D000086
:040C40001000002080
:080C4400C0F5FF7F0100000074
:080C4C00F9090008E9010008A4
:040C5400C5010008CE
:100C5800000000000024F4006404002010000020BC
:100C680000000000FC02002064030020CC030020E8
:100C7800000000000000000000000000000000006C
:100C8800000000000000000000000000000000005C
:100C9800000000000000000000000000000000004C
:100CA800000000000000000000000000000000003C
:100CB800000000000000000000000000000000002C
:100CC800000000000000000000000000000000001C
:100CD800000000000000000000000000000000000C
:100CE80000000000000000000000000000000000FC
:100CF80000000000000000000000000000000000EC
:100D080000000000000000000100000000000000DA
:100D18000E33CDAB34126DE6ECDE05000B0000009F
:100D280000000000000000000000000000000000BB
:100D380000000000000000000000000000000000AB
:100D4800000000000000000000000000000000009B
:100D5800000000000000000000000000000000008B
:0C108800000000000000000070040020C8
:040000050800088D5A
:00000001FF
