:020000040800F2
:1000000000000220B50800080509000805090008DD
:10001000050900080509000805090008000000009E
:1000200000000000000000000000000005090008BA
:10003000050900080000000005090008C1030008C8
:100040000509000805090008050900080509000858
:100050000509000805090008050900080509000848
:100060000509000805090008050900080509000838
:100070000509000805090008050900080509000828
:10008000E50200080509000805090008050900083F
:100090000509000805090008050900080509000808
:1000A00005090008050900080509000805090008F8
:1000B0008102000805090008050900080509000873
:1000C00005090008050900080509000805090008D8
:1000D00005090008050900080509000805090008C8
:1000E00005090008050900080509000805090008B8
:1000F00005090008050900080509000805090008A8
:100100000509000805090008050900080509000897
:100110000509000805090008050900080509000887
:100120000509000805090008050900080509000877
:100130000509000800000000000000000509000893
:100140000509000805090008050900080509000857
:100150000509000805090008050900080509000847
:100160000509000805090008050900080509000837
:10017000050900080509000805090008000000003D
:100180000000000005090008000000000000000059
:100190000509000800000000000000000509000833
:1001A0000000000000000000000000000509000839
:1001B00005090008050900080509000805090008E7
:0401C0000509000825
:1001C40010B5054C237833B9044B13B10448AFF38D
:1001D40000800123237010BD3C04002000000000B7
:1001E400EC0B000808B5034B1BB103490348AFF3FC
:1001F400008008BD0000000040040020EC0B000853
:10020400A3F5803A704700BF174B002B08BF134B70
:100214009D46FFF7F5FF00218B460F461348144A0D
:10022400121A00F0A9FB0E4B002B00D098470D4B7F
:10023400002B00D098470020002104000D000D4839
:10024400002802D00C4800F059FC00F071FB20009B
:10025400290000F0E3FA00F05BFB00BF0000080097
:100264000000000000000000000000003C0400202A
:10027400A8040020010B00080D0B00084FF0804378
:100284001A69D1070DD51A69144922F001021A61BD
:100294008A79022A0FD08A79032A18D08A79042A03
:1002A4000CD04FF080431A69920703D51A6922F0E3
:1002B40002021A61704701238B71F2E70022382091
:1002C400D8628A711A6822F001021A60E9E740F6DE
:1002D400CA000422D8628A71E3E700BF58040020F0
:1002E400094B5A6812050ED5DA6808494FF0804068
:1002F40042F4006210B4DA600024022344638B7178
:100304005DF8044B704770470060024058040020B9
:10031400204B1A6842F001021A601A689207FCD551
:100324001D4A5A605A681B4922F480025A609A682E
:1003340042F414429A601A6842F080721A600B68A0
:100344009801FCD50B6C154A43F080530B64136879
:1003540043F4803313605368D903FCD513680F4901
:1003640043F4003313604B689B03FCD50C4B094AE0
:1003740040F205711960936823F003039360936856
:1003840043F002039360936803F00C03082BFAD143
:10039400704700BF00380240082D00020070004082
:1003A400003C02404FF0E0230349002007229861FB
:1003B40059611A61704700BF1FBF0200044B1A68DD
:1003C40012B11A68013A1A605A6801325A607047C9
:1003D40078040020024A10601368002BFCD1704797
:1003E40078040020014B5868704700BF780400204F
:1003F4000F4B104A186B104940F0010010B41863F9
:10040400106840F080001060106A40F4E040106210
:100414001A6C40F2871442F400321A648C60CB6880
:100424005DF8044B43F4005343F00403CB6070477E
:10043400003802400000024000440040044A0549DC
:10044400D368402043F02003D3604860704700BF66
:100454000044004000E100E0034A13689B06FCD519
:100464005068C0B2704700BF004400400F4B104AB0
:10047400186B104940F0010010B41863106840F084
:1004840020001060106A40F4E06010621A6C40F2C0
:10049400871442F400321A648C60CB685DF8044B14
:1004A40043F4005343F00803CB6070470038024024
:1004B4000000024000440040024A13681B06FCD5B9
:1004C40050607047004400401C491D4A086B40F0CE
:1004D400010010B40863086C012420430864116807
:1004E40041F400611160116A4FF0804341F48011BE
:1004F4001162382160229C62D9629A61DA681149DA
:100504002243DA60DA6842F00202DA60DA6842F41E
:100514000072DA60DA6842F48072DA605A6842F093
:1005240008025A601A6A22431A621A684FF080500D
:1005340022431A605DF8044B08607047003802409B
:100544000000024000E100E01A491B4B0A6B002046
:1005540042F400120A63C3F88800D3F88820D20753
:10056400FBD4D3F88820154942F0C062C3F8882030
:10057400D3F8882042F48062C3F88820D3F8882016
:1005840042F48042C3F88820D3F8882042F4805291
:10059400C3F88820D3F8882042F04002C3F88820AA
:1005A400D3F888204FF4803042F01002C3F888203A
:1005B40008607047003802400060024000E100E03B
:1005C400002360F3070361F30F2362F3174382B040
:1005D400184602B0704700BF2DE9F047054698B0B1
:1005E400AB7903F0FF08002BFAD1264F264BC7F84E
:1005F40090304FF0804A1823C7F894D0C7F88C3055
:10060400CAF82480CAF83480DAF8003043F00103D1
:10061400CAF80030AB887BB32E6803EB430303EBCB
:1006240006094FF0010E1024202096F800C07278BD
:10063400B3784FEA0C2C4CEA024C4CEA030C6A46A1
:1006440017230EFA03F111EA0C0F03F1FF3314BF61
:1006540010601460591C02F10402F2D1D7F88830FA
:1006640043F00103C7F88830CAF82480AB79022B21
:10067400FCD10336B145D8D10323AB7118B0BDE822
:10068400F08700BF006002403400004010B504460B
:10069400C0B2FFF711FF204610BD00BF800C000858
:1006A400000000203C0400203C040020A80400209A
:1006B400034AD2F8883043F47003C2F88830704794
:1006C40000ED00E0164A936803F00C03042B0CD0F1
:1006D400082B0CD0134B124A134892681349C2F3E7
:1006E4000312825CD3400B607047114BF3E75368ED
:1006F400516813F4800F01F03F01536814BF0C4A92
:10070400084AB2FBF1F1064A5268C2F30142C3F34C
:100714008813013201FB03F35200B3FBF2F3DAE76F
:10072400003802400024F4002C0C000804000020CF
:1007340040787D01704700BF0120704708B500F084
:10074400E1F8162303604FF0FF3008BD08B500F050
:10075400D9F816230360FEE770B5161E07DD0C46B4
:100764008D19AFF3008004F8010BA542F9D130468E
:1007740070BD00BF70B5161E07DD0C468D1914F848
:10078400010BFFF783FFA542F9D1304670BD00BFCE
:100794004FF0FF30704700BF4FF400534B60002010
:1007A400704700BF01207047002070470EB44FF01F
:1007B400FF3003B0704700BF08B500F0A3F80A2368
:1007C40003604FF0FF3008BD08B500F09BF802232A
:1007D40003604FF0FF3008BD4FF0FF30704700BF9B
:1007E4004FF400534B600020704700BF08B500F081
:1007F40089F81F2303604FF0FF3008BD08B500F0EF
:1008040081F80B2303604FF0FF3008BD08B500F0FA
:1008140079F80C2303604FF0FF3008BD2DE9F04751
:10082400214FDFF88880FFF773FDFFF7BBFDFFF76B
:100834001DFEFFF749FEFFF787FE002307F10801BD
:1008440008221D463960BA80BB711E46FFF7CAFDF7
:10085400431B142B0446F9DDBB88CBB15FFA86F940
:100864000025002211464846FFF7AAFE3968B7F86A
:1008740004C005EB45028B180135C0F3072AC0F309
:10088400074EAC45885483F801A083F802E0E8DC05
:100894003846FFF7A1FE731CA8FB0326F609C6EB36
:1008A40006269E1B2546D1E75804002081808080BF
:1008B400DFF834D00D480E490E4A002302E0D45824
:1008C400C4500433C4188C42F9D30B4A0B4C002394
:1008D40001E013600432A242FBD3FFF7E9FE00F00B
:1008E40027F8FFF79BFF704700000220000000205C
:1008F4003C040020800C00083C040020A8040020D4
:10090400FEE70000014B1868704700BF0C00002090
:1009140008B50021044600F08BF8044B1868C36B3B
:1009240003B198472046FFF711FF00BF680C000889
:1009340070B50D4E0D4D761BB61006D0002455F83B
:10094400043B01349847A642F9D1094E094D761B60
:1009540000F04CF9B61006D0002455F8043B0134DD
:100964009847A642F9D170BD740C0008740C0008B5
:100974007C0C0008740C0008830730B548D0541E62
:10098400002A3FD0CAB2034601E0013C3AD303F83F
:10099400012B9D07F9D1032C2DD9CDB245EA0525AC
:1009A4000F2C45EA054536D9A4F1100222F00F0CAC
:1009B40003F1200EE6444FEA121C03F1100242E94F
:1009C400045542E9025510327245F8D10CF1010286
:1009D40014F00C0F03EB021204F00F0C13D0ACF163
:1009E400040323F003030433134442F8045B9342E7
:1009F400FBD10CF003042CB1CAB21C4403F8012B44
:100A04009C42FBD130BD64461346002CF4D1F9E777
:100A140003461446BFE71A46A446E0E7024B13B167
:100A2400024800F06BB87047000000000D0B00088E
:100A34002DE9F84F2F4B2DED028B834618680F4696
:100A440000F082F82C4BD3F80080D8F84861AEB19E
:100A540008EE10BA4FF001094FF0000A7468651EE1
:100A64000CD4013406EB840487B1D4F80031BB42C2
:100A74000CD0013D6B1CA4F10404F5D1BDEC028B38
:100A84001C4B1868BDE8F84F00F066B8736822681C
:100A9400013BAB420CBF7560C4F800A0002AE8D04B
:100AA400D6F88801D6F804B009FA05F101420BD151
:100AB400904772685A4513D1D8F84831B342D8D018
:100AC4001E46002ECAD1D9E7D6F88C0101420CD1BA
:100AD400D4F8801018EE100A904772685A45EBD08B
:100AE400D8F84861002EB9D1C8E7D4F880009047FF
:100AF400DFE700BF38040020680C0008002301462B
:100B04001A46184600F02AB838B5084B084D5B1B46
:100B14009C1007D0043B1D44013C55F80439984708
:100B2400002CF9D1BDE8384000F066B8800C00080C
:100B34007C0C0008704700BF704700BF704700BFBF
:100B4400704700BF704700BF704700BF0120704767
:100B540001207047704700BF704700BF2DE9F04780
:100B6400DFF880A00646DAF8000098460F46914662
:100B7400FFF7EAFF1A4B1B68D3F8484124B36568B2
:100B84001F2D26DC5EB96B1C0235DAF800006360A9
:100B940044F82570FFF7E0FF0020BDE8F08704EB80
:100BA40085010123C1F88890D4F88821AB401A4309
:100BB400022EC4F88821C1F80881E4D1D4F88C212C
:100BC4001343C4F88C31DEE703F5A674C3F8484137
:100BD400D5E7DAF80000FFF7BFFF4FF0FF30DCE79E
:100BE400680C00083804002000000000F8B500BFBD
:100BF400F8BC08BC9E467047F8B500BFF8BC08BCFA
:040C04009E46704751
:100C08003A3D0A3D0F3D243D323D023D053D133D31
:100C18000D3D0C3D233D113D263D013D173D083D51
:100C2800093D00000000000000000000010203046C
:100C38000607080900000000010203043A3D0A3DC6
:100C48000F3D243D323D023D053D133D0D3D0C3D1C
:100C5800233D113D263D013D173D083D093D00005E
:040C68001000002058
:080C6C0098F5FF7F0100000074
:080C7400210A0008E901000853
:040C7C00C5010008A6
:100C8000000000000024F400800400201000002078
:100C900000000000FC02002064030020CC030020C0
:100CA0000000000000000000000000000000000044
:100CB0000000000000000000000000000000000034
:100CC0000000000000000000000000000000000024
:100CD0000000000000000000000000000000000014
:100CE0000000000000000000000000000000000004
:100CF00000000000000000000000000000000000F4
:100D000000000000000000000000000000000000E3
:100D100000000000000000000000000000000000D3
:100D200000000000000000000000000000000000C3
:100D300000000000000000000100000000000000B2
:100D40000E33CDAB34126DE6ECDE05000B00000077
:100D50000000000000000000000000000000000093
:100D60000000000000000000000000000000000083
:100D70000000000000000000000000000000000073
:100D80000000000000000000000000000000000063
:0C10B00000000000000000008C04002084
:04000005080008B532
:00000001FF
