:020000040800F2
:100000000000022099080008E9080008E908000833
:10001000E9080008E9080008E908000800000000F5
:10002000000000000000000000000000E9080008D7
:10003000E908000800000000E90800082D03000896
:10004000E9080008E9080008E9080008E9080008CC
:10005000E9080008E9080008E9080008E9080008BC
:10006000E9080008E9080008E9080008E9080008AC
:10007000E9080008E9080008E9080008E90800089C
:1000800051060008E9080008E9080008E908000826
:10009000E9080008E9080008E9080008E90800087C
:1000A000E9080008E9080008E9080008E90800086C
:1000B00009060008E9080008E9080008E90800083E
:1000C000E9080008E9080008E9080008E90800084C
:1000D000E9080008E9080008E9080008E90800083C
:1000E000E9080008E9080008E9080008E90800082C
:1000F000E9080008E9080008E9080008E90800081C
:10010000E9080008E9080008E9080008E90800080B
:10011000E9080008E9080008E9080008E9080008FB
:10012000E9080008E9080008E9080008E9080008EB
:10013000E90800080000000000000000E9080008CD
:10014000E9080008E9080008E9080008E9080008CB
:10015000E9080008E9080008E9080008E9080008BB
:10016000E9080008E9080008E9080008E9080008AB
:10017000E9080008E9080008E90800080000000094
:1001800000000000E9080008000000000000000076
:10019000E90800080000000000000000E90800086D
:1001A000000000000000000000000000E908000856
:1001B000E9080008E9080008E9080008E90800085B
:0401C000E908000842
:1001C40010B5054C237833B9044B13B10448AFF38D
:1001D40000800123237010BD3C04002000000000B7
:1001E400D00B000808B5034B1BB103490348AFF318
:1001F400008008BD0000000040040020D00B00086F
:10020400A3F5803A704700BF174B002B08BF134B70
:100214009D46FFF7F5FF00218B460F461348144A0D
:10022400121A00F09BFB0E4B002B00D098470D4B8D
:10023400002B00D098470020002104000D000D4839
:10024400002802D00C4800F04BFC00F063FB2000B7
:10025400290000F0DBFA00F04DFB00BF00000800AD
:100264000000000000000000000000003C0400202A
:1002740090040020E50A0008F10A0008204B1A68DF
:1002840042F001021A601A689207FCD51D4A5A60AE
:100294005A681B4922F480025A609A6842F4144254
:1002A4009A601A6842F080721A600B689801FCD553
:1002B4000B6C154A43F080530B64136843F480338A
:1002C40013605368D903FCD513680F4943F4003312
:1002D40013604B689B03FCD50C4B094A40F2057133
:1002E4001960936823F003039360936843F0020357
:1002F4009360936803F00C03082BFAD1704700BF96
:1003040000380240082D000200700040003C02400A
:100314004FF0E023034900200722986159611A61D4
:10032400704700BF1FBF0200044B1A6812B11A685D
:10033400013A1A605A6801325A6070475804002022
:10034400024A10601368002BFCD170475804002047
:10035400014B5868704700BF580400200F4B104AE7
:10036400186B104940F0010010B41863106840F095
:1003740080001060106A40F4E04010621A6C40F291
:10038400871442F400321A648C60CB685DF8044B25
:1003940043F4005343F00403CB6070470038024039
:1003A4000000024000440040044A0549D36840204C
:1003B40043F02003D3604860704700BF004400400E
:1003C40000E100E0034A13689B06FCD55068C0B204
:1003D400704700BF004400400F4B104A186B10498F
:1003E40040F0010010B41863106840F02000106061
:1003F400106A40F4E06010621A6C40F2871442F410
:1004040000321A648C60CB685DF8044B43F40053EB
:1004140043F00803CB6070470038024000000240FC
:1004240000440040024A13681B06FCD55060704724
:10043400004400401D491E4A086B40F0010010B4FE
:100444000863086C012420430864116841F40061C6
:100454001160116A4FF0804341F480111162382019
:10046400602100229C62D86299615A63DA6811495A
:100474002243DA60DA6842F00202DA60DA6842F4AF
:100484000072DA60DA6842F48072DA605A6842F024
:1004940008025A601A6A22431A621A684FF080509E
:1004A40022431A605DF8044B08607047003802402C
:1004B4000000024000E100E01A491B4B0A6B0020D7
:1004C40042F400120A63C3F88800D3F88820D207E4
:1004D400FBD4D3F88820154942F0C062C3F88820C1
:1004E400D3F8882042F48062C3F88820D3F88820A7
:1004F40042F48042C3F88820D3F8882042F4805222
:10050400C3F88820D3F8882042F04002C3F888203A
:10051400D3F888204FF4803042F01002C3F88820CA
:1005240008607047003802400060024000E100E0CB
:10053400002360F3070361F30F2362F3174382B0D0
:10054400184602B0704700BF2DE9F0474FF08043D2
:100554000022294E5A629AB03368002BFCD100293C
:1005640044DD01EB4101DFF894E0DFF894900746A5
:100574000DF1080A00EB01084FF0010C10252024AE
:10058400DEF8883013F00103FAD13A787878B97834
:10059400120242EA00420A4301920199C3F117028E
:1005A4000CFA02F20A4208BF1AAA1AA808BF02EB00
:1005B400830200EB830003F1010314BF40F8604C95
:1005C40042F8605C182BE8D1CEF88C30CEF89090CD
:1005D400CEF894A0DEF8883043F00103CEF88830DA
:1005E4007368002BFCD00337B845C9D101233360AD
:1005F4001AB0BDE8F08700BF60040020006002402C
:10060400340000404FF080431A69D10712D51969AC
:100614000D4A21F001011961516811B1002159639A
:10062400516013684BB14FF0804138200023C862F9
:10063400136070471A69920700D470471A6922F050
:1006440002021A61704700BF60040020094B5A6817
:1006540012050DD5DA68084942F400620120DA6017
:1006640048600B6823B14FF0804340F6C412DA624D
:10067400704700BF006002406004002010B50446CB
:10068400C0B2FFF7CFFE204610BD00BF640C0008C7
:10069400000000203C0400203C04002090040020C2
:1006A400034AD2F8883043F47003C2F888307047A4
:1006B40000ED00E0164A936803F00C03042B0CD001
:1006C400082B0CD0134B124A134892681349C2F3F7
:1006D4000312825CD3400B607047114BF3E75368FD
:1006E400516813F4800F01F03F01536814BF0C4AA2
:1006F400084AB2FBF1F1064A5268C2F30142C3F35D
:100704008813013201FB03F35200B3FBF2F3DAE77F
:10071400003802400024F400100C000804000020FB
:1007240040787D01704700BF0120704708B500F094
:10073400DBF8162303604FF0FF3008BD08B500F066
:10074400D3F816230360FEE770B5161E07DD0C46CA
:100754008D19AFF3008004F8010BA542F9D130469E
:1007640070BD00BF70B5161E07DD0C468D1914F858
:10077400010BFFF783FFA542F9D1304670BD00BFDE
:100784004FF0FF30704700BF4FF400534B60002020
:10079400704700BF01207047002070470EB44FF02F
:1007A400FF3003B0704700BF08B500F09DF80A237E
:1007B40003604FF0FF3008BD08B500F095F8022340
:1007C40003604FF0FF3008BD4FF0FF30704700BFAB
:1007D4004FF400534B600020704700BF08B500F091
:1007E40083F81F2303604FF0FF3008BD08B500F005
:1007F4007BF80B2303604FF0FF3008BD08B500F011
:1008040073F80C2303604FF0FF3008BD2DE9F0436B
:1008140087B0FFF733FDFFF77BFDFFF7DDFDFFF743
:1008240009FEFFF749FE0024DFF86490A046FFF7B5
:100834008FFD031B052B0646F9DD5FFA88F70024BC
:1008440006AB04EB440539463A4638461D44FFF7E7
:100854006FFE01340346C3F30741C0F30720082C9D
:1008640005F8183C05F8170C05F8161CE8D12146C4
:100874006846FFF769FE08F10103A9FB03284FEA64
:10088400D818C8EB0828A3EB08083446CFE700BF04
:1008940081808080DFF834D00D480E490E4A002351
:1008A40002E0D458C4500433C4188C42F9D30B4A20
:1008B4000B4C002301E013600432A242FBD3FFF788
:1008C400EFFE00F027F8FFF7A1FF704700000220B9
:1008D400000000203C040020640C00083C040020BC
:1008E40090040020FEE70000014B1868704700BF29
:1008F4000C00002008B50021044600F08BF8044BDE
:100904001868C36B03B198472046FFF717FF00BF71
:100914004C0C000870B50D4E0D4D761BB61006D06C
:10092400002455F8043B01349847A642F9D1094EF6
:10093400094D761B00F04CF9B61006D0002455F88A
:10094400043B01349847A642F9D170BD580C000805
:10095400580C0008600C0008580C0008830730B5D8
:1009640048D0541E002A3FD0CAB2034601E0013CDD
:100974003AD303F8012B9D07F9D1032C2DD9CDB21D
:1009840045EA05250F2C45EA054536D9A4F11002A0
:1009940022F00F0C03F1200EE6444FEA121C03F17F
:1009A400100242E9045542E9025510327245F8D169
:1009B4000CF1010214F00C0F03EB021204F00F0C03
:1009C40013D0ACF1040323F003030433134442F8BB
:1009D400045B9342FBD10CF003042CB1CAB21C4457
:1009E40003F8012B9C42FBD130BD64461346002C16
:1009F400F4D1F9E703461446BFE71A46A446E0E7F4
:100A0400024B13B1024800F06BB8704700000000BD
:100A1400F10A00082DE9F84F2F4B2DED028B834688
:100A240018680F4600F082F82C4BD3F80080D8F8F1
:100A34004861AEB108EE10BA4FF001094FF0000A58
:100A44007468651E0CD4013406EB840487B1D4F8B1
:100A54000031BB420CD0013D6B1CA4F10404F5D160
:100A6400BDEC028B1C4B1868BDE8F84F00F066B86B
:100A740073682268013BAB420CBF7560C4F800A0E8
:100A8400002AE8D0D6F88801D6F804B009FA05F1AE
:100A940001420BD1904772685A4513D1D8F84831B6
:100AA400B342D8D01E46002ECAD1D9E7D6F88C015D
:100AB40001420CD1D4F8801018EE100A90477268E5
:100AC4005A45EBD0D8F84861002EB9D1C8E7D4F81C
:100AD40080009047DFE700BF380400204C0C00087A
:100AE400002301461A46184600F02AB838B5084BC8
:100AF400084D5B1B9C1007D0043B1D44013C55F87A
:100B040004399847002CF9D1BDE8384000F066B8A4
:100B1400640C0008600C0008704700BF704700BFF9
:100B2400704700BF704700BF704700BF704700BFE9
:100B34000120704701207047704700BF704700BF15
:100B44002DE9F047DFF880A00646DAF80000984661
:100B54000F469146FFF7EAFF1A4B1B68D3F848414A
:100B640024B365681F2D26DC5EB96B1C0235DAF8E8
:100B74000000636044F82570FFF7E0FF0020BDE843
:100B8400F08704EB85010123C1F88890D4F888210B
:100B9400AB401A43022EC4F88821C1F80881E4D17D
:100BA400D4F88C211343C4F88C31DEE703F5A67422
:100BB400C3F84841D5E7DAF80000FFF7BFFF4FF06C
:100BC400FF30DCE74C0C0008380400200000000073
:100BD400F8B500BFF8BC08BC9E467047F8B500BF26
:080BE400F8BC08BC9E467047F6
:100BEC003A3D0A3D0F3D243D323D023D053D133D4E
:100BFC000D3D0C3D233D113D263D013D173D083D6E
:100C0C00093D000000000000000000000102030488
:100C1C000607080900000000010203043A3D0A3DE2
:100C2C000F3D243D323D023D053D133D0D3D0C3D38
:100C3C00233D113D263D013D173D083D093D00007A
:040C4C001000002074
:080C5000B4F5FF7F0100000074
:080C5800050A0008E90100088B
:040C6000C5010008C2
:100C6400000000000024F4006804002010000020AC
:100C740000000000FC02002064030020CC030020DC
:100C84000000000000000000000000000000000060
:100C94000000000000000000000000000000000050
:100CA4000000000000000000000000000000000040
:100CB4000000000000000000000000000000000030
:100CC4000000000000000000000000000000000020
:100CD4000000000000000000000000000000000010
:100CE4000000000000000000000000000000000000
:100CF40000000000000000000000000000000000F0
:100D040000000000000000000000000000000000DF
:100D140000000000000000000100000000000000CE
:100D24000E33CDAB34126DE6ECDE05000B00000093
:100D340000000000000000000000000000000000AF
:100D4400000000000000000000000000000000009F
:100D5400000000000000000000000000000000008F
:100D6400000000000000000000000000000000007F
:0C109400000000000000000074040020B8
:04000005080008994E
:00000001FF
